:100000000C942A000C94FA1A0C94211B0C94481B93
:100010000C9428180C9451180C94DD180C940619A3
:100020000C942F190C9458190C94291A0C94521AE8
:100030000C9447000C9463170C948E170C94B7170C
:100040000C94621D0C9447000C9447000C944700DC
:100050000C94470011241FBECFE5D8E0DEBFCDBF12
:1000600012E0A0E6B0E0EAEBFEE402C005900D92DB
:10007000A632B107D9F712E0A6E2B2E001C01D92A4
:10008000A63AB107E1F70E9430260C945B270C9446
:100090000000EF92FF920F931F937B018C0120E0F1
:1000A00030E040E05FE40E942A1488238CF0C8010D
:1000B000B70120E030E040E05FE40E9426120E9499
:1000C0005A149B01AC01205030404040504806C0BB
:1000D000C801B7010E945A149B01AC01B901CA01C1
:1000E0001F910F91FF90EF900895A2E7B0E0EBE72A
:1000F000F0E00C949F26982E892E712E88E0FE0148
:100100003196DF01682E1D926A94E9F729833A83BC
:100110004B835C836D837E839F829887FE01399633
:10012000DF011D928A95E9F7A986BA86CB86DC861F
:10013000ED86FE860F87188B8D819E81AF81B885F5
:10014000B7FD07C0E1961CAE1DAE1EAE1FAEE19717
:1001500064C0219581E0121608F080E0319591E0AD
:10016000131608F090E0B32FB81B81E03B1708F09E
:1001700080E0982B419531E0141608F030E0A42F70
:10018000A91B81E04A1708F080E0382B519591E0D7
:10019000151608F090E0F52FF31B81E05F1708F0CB
:1001A00080E0982B619531E0161608F030E0E62FDC
:1001B000E91B81E06E1708F080E0382B719541E073
:1001C000171608F040E0572F531B81E0751708F011
:1001D00080E0482B892D819591E0181608F090E079
:1001E000682E641A462D31E0861508F030E0932B16
:1001F000882D8195891B2983BA83AB83FC83ED838A
:100200005E834F8388872FEF3FEF4FEF5FEFE196DD
:100210002CAF3DAF4EAF5FAFE1978D859E85AF852B
:10022000B889B7FF6AC0E1964CAD5DAD6EAD7FADEC
:10023000E1974095509560957095E1964CAF5DAF14
:100240006EAF7FAFE197A19481E01A1408F080E0CF
:10025000B19491E01B1408F090E06B2D681B81E0D5
:10026000B61608F080E0982BC19421E01C1408F029
:1002700020E05C2D591B81E0C51608F080E0282B9A
:10028000D19491E01D1408F090E04D2D421B81E0C7
:10029000D41608F080E0982BE19421E01E1408F0B9
:1002A00020E03E2D391B81E0E31608F080E0282B8A
:1002B000F19491E01F1408F090E07F2D721B272F1E
:1002C00081E0F71608F080E0982B019511E01016F8
:1002D00008F010E0802F891B982F81E0091708F0A3
:1002E00080E0182B872D8195811BA9866A875B8703
:1002F0004C873D872E879F87888B99812A813B81F8
:100300004C815D816E817F81A885B9851A850B85B9
:10031000FC84ED84DE84CF84B88888E0E1E18E2E11
:10032000912C8C0E9D1EF401682E11926A94E9F7AF
:10033000998B2A8B3B8B4C8B5D8B6E8B7F8BA88F25
:100340009E01275E3F4FF90111928A95E9F7B98F17
:100350001A8F0B8FFC8EED8EDE8ECF8EB8A2298C7D
:100360003A8C4B8C5C8CED8CFE8C0F8D18A16988BF
:100370007A888B889C8821966CAE7DAE8EAE9FAEBF
:1003800021976D887E888F88988CE114F10401058F
:10039000110509F0D9C3621473048404950408F0AC
:1003A00057C100E0201600E0300601E0400600E002
:1003B000500688F41FEF211631044104510439F02E
:1003C00030F048E0E42EF12C012D112D18C0EE2460
:1003D000FF24870114C020E0221620E0320620E02E
:1003E000420621E0520630F038E1E32EF12C012DD7
:1003F000112D05C020E1E22EF12C012D112DD2018D
:10040000C1010E2C04C0B695A795979587950A94BF
:10041000D2F789519F4FDC012C9180E290E0A0E05F
:10042000B0E08E199F09A00BB10B7C018D01E21A7F
:10043000F10801091109E114F10401051105D1F1D7
:100440000E2C04C0220C331C441C551C0A94D2F7F9
:10045000A40193010E2C04C0220F331F441F551F0B
:100460000A94D2F780E290E08E199F0921966CAC35
:100470007DAC8EAC9FAC219704C096948794779402
:1004800067948A95D2F7622A732A842A952A21963C
:10049000ACACBDACCEACDFAC219704C0AA0CBB1C8D
:1004A000CC1CDD1CEA94D2F72196ACAEBDAECEAE2C
:1004B000DFAE21976201EE24FF242996CCAEDDAE9B
:1004C000EEAEFFAE299792018101207030702D961B
:1004D0000CAF1DAF2EAF3FAF2D97C401B301A701E5
:1004E00096010E9469267B018C01C401B301299603
:1004F0002CAD3DAD4EAD5FAD29970E946926C90177
:10050000DA013C014D01C401B3012D962CAD3DAD86
:100510004EAD5FAD2D970E9437269B01AC01870140
:10052000FF24EE242196ACACBDACCEACDFAC219761
:10053000C601AA27BB2757016801A82AB92ACA2AD7
:10054000DB2AA216B306C406D506E0F408946108B7
:10055000710881089108A20CB31CC41CD51CA214FC
:10056000B304C404D50470F0A216B306C406D506BD
:1005700048F408946108710881089108A20CB31C22
:10058000C41CD51CA21AB30AC40AD50AC601B501F7
:1005900029962CAD3DAD4EAD5FAD29970E946926E1
:1005A0007B018C01C601B50129962CAD3DAD4EAD48
:1005B0005FAD29970E946926C901DA015C016D01CE
:1005C000C601B5012D962CAD3DAD4EAD5FAD2D975D
:1005D0000E9437269B01AC018701FF24EE2421965F
:1005E0008CAD9DADAEADBFAD2197A070B070E82AC7
:1005F000F92A0A2B1B2BE216F30604071507C0F491
:100600000894A108B108C108D108E20CF31C041D2C
:10061000151DE214F3040405150550F0E216F30667
:100620000407150728F40894A108B108C108D108E7
:10063000D3019927882786017501E82AF92A0A2B10
:100640001B2B2596ECAEFDAE0EAF1FAF2597EBC46E
:10065000211431044104510471F461E070E080E040
:1006600090E020E030E040E050E00E946926C901BF
:10067000DA011C012D0100E0201600E0300601E047
:10068000400600E0500688F41FEF211631044104B3
:10069000510431F028F048E050E060E070E017C00D
:1006A00040E050E060E070E012C020E0221620E060
:1006B000320620E0420621E0520628F048E150E0F0
:1006C00060E070E004C040E150E060E070E0D20122
:1006D000C101042E04C0B695A795979587950A94F5
:1006E000D2F789519F4FDC012C91E0E2EE2EF12CE4
:1006F000012D112DD801C701841B950BA60BB70B3B
:10070000821B9109A109B1090097A105B10561F406
:1007100064015301A218B308C408D50831E0632E60
:10072000712C812C912C24C1E3968FAFE397082E76
:1007300004C0220C331C441C551C0A94D2F7EE2D25
:10074000E81B640153010E2E04C0D694C794B794DD
:10075000A7940A94D2F7A4019301E3960FACE39710
:1007600004C0220F331F441F551F0A94D2F721964D
:100770006CAC7DAC8EAC9FAC21970E2E04C09694D1
:100780008794779467940A94D2F784017301E22ADC
:10079000F32A042B152BE9AEFAAE0BAF1CAF3201D6
:1007A00088249924920181012070307061960CAFE9
:1007B0001DAF2EAF3FAF6197C601B501A4019301F4
:1007C0000E9469267B018C01C601B501A401930139
:1007D0000E946926C901DA0165968CAF9DAFAEAF64
:1007E000BFAF6597BC01CD0161962CAD3DAD4EAD5F
:1007F0005FAD61970E9437269B01AC018701FF2402
:10080000EE24A9ACBAACCBACDCACC601AA27BB27A2
:100810005C016D01AE28BF28C02AD12AA216B306FA
:10082000C406D50660F565966CAD7DAD8EAD9FAD09
:100830006597615070408040904065966CAF7DAF89
:100840008EAF9FAF6597A20CB31CC41CD51CA2141D
:10085000B304C404D50498F0A216B306C406D506A2
:1008600070F4615070408040904065966CAF7DAFF1
:100870008EAF9FAF6597A20CB31CC41CD51CA21AE7
:10088000B30AC40AD50AC601B501A40193010E94A6
:1008900069267B018C01C601B501A40193010E9468
:1008A0006926C901DA013C014D01C401B301619619
:1008B0002CAD3DAD4EAD5FAD61970E9437269B01DB
:1008C000AC018701FF24EE2489AD9AADABADBCAD80
:1008D000A070B07057016801A82AB92ACA2ADB2A79
:1008E000A216B306C406D506E0F4089461087108A0
:1008F00081089108A20CB31CC41CD51CA214B3041B
:10090000C404D50470F0A216B306C406D50648F494
:1009100008946108710881089108A20CB31CC41CDA
:10092000D51C21968CAD9DADAEADBFAD2197E396A4
:100930000FACE39704C0880F991FAA1FBB1F0A942E
:10094000D2F721968CAF9DAFAEAFBFAF2197A21A61
:10095000B30AC40AD50A6596ECACFDAC0EAD1FAD6A
:100960006597D70199278827682A792A8A2A9B2A96
:1009700082012227332769960CAF1DAF2EAF3FAF00
:100980006997A2019101407050706D962CAF3DAFF8
:100990004EAF5FAF6D97C601B50169962CAD3DAD09
:1009A0004EAD5FAD69970E9469267B018C01C6013F
:1009B000B50169962CAD3DAD4EAD5FAD69970E9416
:1009C0006926C901DA01A1968CAF9DAFAEAFBFAF6A
:1009D000A197BC01CD016D962CAD3DAD4EAD5FAD87
:1009E0006D970E9437269B01AC018701FF24EE24FE
:1009F0002196ACACBDACCEACDFAC2197C601AA272A
:100A0000BB2757016801A82AB92ACA2ADB2AA216DD
:100A1000B306C406D50660F5A1966CAD7DAD8EAD6E
:100A20009FADA1976150704080409040A1966CAFFF
:100A30007DAF8EAF9FAFA197A20CB31CC41CD51C79
:100A4000A214B304C404D50498F0A216B306C406D5
:100A5000D50670F46150704080409040A1966CAF14
:100A60007DAF8EAF9FAFA197A20CB31CC41CD51C49
:100A7000A21AB30AC40AD50AC601B50169962CADFB
:100A80003DAD4EAD5FAD69970E9469267B018C013B
:100A9000C601B50169962CAD3DAD4EAD5FAD699710
:100AA0000E946926C901DA015C016D01C601B50128
:100AB0006D962CAD3DAD4EAD5FAD6D970E94372666
:100AC0009B01AC018701FF24EE2421968CAD9DADE6
:100AD000AEADBFAD2197A070B070E82AF92A0A2BFD
:100AE0001B2BE216F30604071507C0F40894A108AF
:100AF000B108C108D108E20CF31C041D151DE21455
:100B0000F3040405150550F0E216F3060407150773
:100B100028F40894A108B108C108D108A196ECAC4A
:100B2000FDAC0EAD1FADA197D7019927882796017F
:100B30008501082B192B2A2B3B2B25960CAF1DAFBB
:100B40002EAF3FAF259772C26E147F0480069106C8
:100B500008F45FC220E0E21620E0F20621E002077E
:100B600020E0120788F43FEFE316F10401051105B8
:100B700031F028F048E050E060E070E017C040E05D
:100B800050E060E070E012C040E0E41640E0F4069F
:100B900040E0040741E0140728F048E150E060E03D
:100BA00070E004C040E150E060E070E0D801C701AF
:100BB000042E04C0B695A795979587950A94D2F709
:100BC00089519F4FDC012C9130E2A32EB12CC12C16
:100BD000D12CD601C501841B950BA60BB70B821B2C
:100BE0009109A109B1090097A105B10599F4E6148D
:100BF000F7040805190508F4FEC121966CAC7DAC1C
:100C00008EAC9FAC2197621473048404950408F0A1
:100C1000F2C1FFC1E2968FAFE297082E04C0EE0C3E
:100C2000FF1C001F111F0A94D2F76A2D681BD20106
:100C3000C101062E04C0B695A795979587950A948D
:100C4000D2F75C016D01AE28BF28C02AD12AADAA17
:100C5000BEAACFAAD8AE72016101E2960FACE297AC
:100C600004C0CC0CDD1CEE1CFF1C0A94D2F7C9AAF0
:100C7000DAAAEBAAFCAA64015301062E04C0D6949A
:100C8000C794B794A7940A94D2F7D401C301E2960B
:100C90000FACE29704C0880F991FAA1FBB1F0A94CC
:100CA000D2F72196ECACFDAC0EAD1FAD219704C080
:100CB00016950795F794E7946A95D2F7370148019E
:100CC000682A792A8A2A9B2A6DA67EA68FA698AAC8
:100CD000EDA8FEA80FA918AD380188249924980121
:100CE000870120703070A5960CAF1DAF2EAF3FAFBF
:100CF000A597C601B501A40193010E9469267B0155
:100D00008C01C601B501A40193010E946926C901A5
:100D1000DA011C012D01C201B101A5962CAD3DAD3A
:100D20004EAD5FADA5970E9437269B01AC018701B0
:100D3000FF24EE24ADA4BEA4CFA4D8A8C601AA2740
:100D4000BB2757016801A82AB92ACA2ADB2AA2169A
:100D5000B306C406D50600F50894210831084108F9
:100D60005108EDA8FEA80FA918ADAE0CBF1CC01EFF
:100D7000D11EAE14BF04C006D10670F0A216B30691
:100D8000C406D50648F408942108310841085108E2
:100D9000AE0CBF1CC01ED11EA21AB30AC40AD50ACB
:100DA000C601B501A40193010E9469267B018C0153
:100DB000C601B501A40193010E946926C901DA01A7
:100DC0003C014D01C401B301A5962CAD3DAD4EAD26
:100DD0005FADA5970E9437269B01AC018701FF24D8
:100DE000EE248DA59EA5AFA5B8A9A070B07057013F
:100DF0006801A82AB92ACA2ADB2AA216B306C406A1
:100E0000D50600F5089461087108810891086DA95C
:100E10007EA98FA998ADA60EB71EC81ED91EA6160C
:100E2000B706C806D90670F0A216B306C406D506E2
:100E300048F408946108710881089108A60EB71E4D
:100E4000C81ED91ED601C501821B930BA40BB50B7E
:100E500089A79AA7ABA7BCA7D101992788276401C6
:100E60005301A82AB92ACA2ADB2A2596ACAEBDAE00
:100E7000CEAEDFAE2597860175012FEF3FEF40E044
:100E800050E0E222F32204231523A60166277727E8
:100E9000AD964CAF5DAF6EAF7FAFAD97A9A8BAA8C6
:100EA000CBA8DCA86FEF7FEF80E090E0A622B7220E
:100EB000C822D92289A99AA9ABA9BCA91D01442499
:100EC0005524C801B701A60195010E943726A996AD
:100ED0006CAF7DAF8EAF9FAFA997C801B701A201DC
:100EE00091010E9437263B014C01AD966CAD7DAD62
:100EF0008EAD9FADAD97A60195010E9437267B016F
:100F00008C01AD966CAD7DAD8EAD9FADAD97A20160
:100F100091010E9437265B016C01A8019701260D03
:100F2000371D481D591DA9966CAC7DAC8EAC9FAC8D
:100F3000A997C401AA27BB27280F391F4A1F5B1F87
:100F40002E153F054007510748F4E12CF12C61E0D4
:100F5000062F112DAE0CBF1CC01ED11ECA01AA2720
:100F6000BB27BC01CD016A0D7B1D8C1D9D1D69A495
:100F70007AA48BA49CA4661677068806990650F17D
:100F8000661577058805990509F04DC0D90199279F
:100F90008827A9962CAD3DAD4EAD5FADA9974070A9
:100FA0005070820F931FA41FB51F21962CAD3DAD2D
:100FB0004EAD5FAD2197E2960FACE29704C0220FD1
:100FC000331F441F551F0A94D2F7281739074A07C1
:100FD0005B0748F525960CAD1DAD2EAD3FAD2597B1
:100FE000015010402040304025960CAF1DAF2EAF71
:100FF0003FAF259718C066247724430121E030E0F5
:1010000040E050E025962CAF3DAF4EAF5FAF259747
:101010000DC066247724430125961CAE1DAE1EAE7E
:101020001FAE259703C0662477244301FE01B196C5
:1010300088E0DF011D928A95E9F72596ACACBDAC3E
:10104000CEACDFAC2597A9A2BAA2CBA2DCA26DA23E
:101050007EA28FA298A622962FAD22973AA14BA1ED
:101060005CA1662D7EA1DFA098A5E196ECACFDAC5D
:101070000EAD1FADE197E114F1040105110509F46E
:1010800056C0219581E0121608F080E03195E1E02C
:10109000131608F0E0E0932E981A81E0391508F055
:1010A00080E0E82B4195F1E0141608F0F0E0A42E62
:1010B000AE1A81E04A1508F080E0F82B5195E1E086
:1010C000151608F0E0E0B52EBF1A81E05B1508F0B8
:1010D00080E0E82B6195F1E0161608F0F0E0A62F0D
:1010E000AE1B81E06A1708F080E0F82B7195E1E013
:1010F000171608F0E0E0C72ECF1A81E07C1508F043
:1011000080E0E82B8D2D8195F1E0181608F0F0E0D5
:10111000D82EDE1AE1E08D1508F0E0E0FE2B892FD5
:101120008195392DA5016A2F7C2D982F9F1B8D2D20
:10113000CE58DF4FE2E10C94BB26A7E7B0E0E3EA2C
:10114000F8E00C949F26982E892E712E88E0FE01DF
:101150003196DF01682E1D926A94E9F729833A835C
:101160004B835C836D837E839F829887FE013996D3
:10117000DF011D928A95E9F7A986BA86CB86DC86BF
:10118000ED86FE860F87188B8D819E81AF81B88595
:10119000B7FD07C0E1961CAE1DAE1EAE1FAEE197B7
:1011A00064C0219581E0121608F080E0319591E04D
:1011B000131608F090E0B32FB81B81E03B1708F03E
:1011C00080E0982B419531E0141608F030E0A42F10
:1011D000A91B81E04A1708F080E0382B519591E077
:1011E000151608F090E0F52FF31B81E05F1708F06B
:1011F00080E0982B619531E0161608F030E0E62F7C
:10120000E91B81E06E1708F080E0382B719541E012
:10121000171608F040E0572F531B81E0751708F0B0
:1012200080E0482B892D819591E0181608F090E018
:10123000682E641A462D31E0861508F030E0932BB5
:10124000882D8195891B2983BA83AB83FC83ED8329
:101250005E834F8388872FEF3FEF4FEF5FEFE1967D
:101260002CAF3DAF4EAF5FAFE1978D859E85AF85CB
:10127000B889B7FF5AC0A19481E01A1408F080E041
:10128000B19491E01B1408F090E06B2D681B81E095
:10129000B61608F080E0982BC19421E01C1408F0E9
:1012A00020E05C2D591B81E0C51608F080E0282B5A
:1012B000D19491E01D1408F090E04D2D421B81E087
:1012C000D41608F080E0982BE19421E01E1408F079
:1012D00020E03E2D391B81E0E31608F080E0282B4A
:1012E000F19491E01F1408F090E07F2D721B272FDE
:1012F00081E0F71608F080E0982B019511E01016B8
:1013000008F010E0802F891B982F81E0091708F062
:1013100080E0182B872D8195811BA9866A875B87C2
:101320004C873D872E879F87888B99812A813B81B7
:101330004C815D816E817F81A885B9851A850B8579
:10134000FC84ED84DE84CF84B88888E0E9E18E2EC9
:10135000912C8C0E9D1EF401682E11926A94E9F76F
:10136000998F2A8F3B8F4C8F5D8F6E8F7F8FA8A3B5
:101370009E012F5D3F4FF90111928A95E9F7B9A3BC
:101380001AA30BA3FCA2EDA2DEA2CFA2B8A629A0AD
:101390003AA04BA05CA0ADA0BEA0CFA0D8A4498D20
:1013A0005A8D6B8D7C8DE5964FAFE597E6965FAFD6
:1013B000E697E7966FAFE797E8967FAFE897E896EE
:1013C0006CAC7DAC8EAC9FACE8972D966CAE7DAED0
:1013D0008EAE9FAE2D978D8D9E8D2F8D38A13C01A9
:1013E000490161966CAE7DAE8EAE9FAE6197A11441
:1013F000B104C104D10409F028C362147304840445
:10140000950408F00EC100E0201600E0300601E06F
:10141000400600E0500688F41FEF21163104410415
:10142000510439F030F088E0E82EF12C012D112D17
:1014300018C0EE24FF24870114C020E0221620E00B
:10144000320620E0420621E0520630F0B8E1EB2EF1
:10145000F12C012D112D05C0A0E1EA2EF12C012D5A
:10146000112DD201C1010E2C04C0B695A7959795F8
:1014700087950A94D2F789519F4FDC012C9180E225
:1014800090E0A0E0B0E08E199F09A00BB10B5C01C9
:101490006D01A21AB108C108D1086596ACAEBDAE07
:1014A000CEAEDFAE6597A114B104C104D10409F436
:1014B00045C062966FAD6297062E04C0220C331CA5
:1014C000441C551C0A94D2F7A4019301062E04C0B3
:1014D000220F331F441F551F0A94D2F780E290E079
:1014E0008A199B09E896CCACDDACEEACFFACE89772
:1014F00004C0F694E794D794C7948A95D2F78701ED
:101500007601E22AF32A042B152B6196ECAEFDAE90
:101510000EAF1FAF6197E8960CAD1DAD2EAD3FAD80
:10152000E89704C0000F111F221F331F6A95D2F7DE
:101530002D960CAF1DAF2EAF3FAF2D9732018824F3
:101540009924A20191014070507069962CAF3DAF73
:101550004EAF5FAF699761966CAD7DAD8EAD9FADBF
:101560006197A40193010E9469267B018C01619619
:101570006CAD7DAD8EAD9FAD6197A40193010E94CE
:101580006926CA01B90169962CAD3DAD4EAD5FAD7E
:1015900069970E9437269B01AC018701FF24EE2446
:1015A0002D96ACACBDACCEACDFAC2D97C601AA2756
:1015B000BB2757016801A82AB92ACA2ADB2AA21622
:1015C000B306C406D50690F4A20CB31CC41CD51CEB
:1015D000A214B304C404D50448F0A216B306C4068A
:1015E000D50620F4A20CB31CC41CD51CA21AB30A45
:1015F000C40AD50AC601B501A40193010E94692657
:101600007B018C01C601B501A40193010E946926EA
:10161000CA01B90169962CAD3DAD4EAD5FAD69977C
:10162000C8C1211431044104510471F461E070E037
:1016300080E090E020E030E040E050E00E94692649
:10164000C901DA011C012D0100E0201600E030067E
:1016500001E0400600E0500688F41FEF2116310437
:101660004104510439F030F068E0E62EF12C012DF0
:10167000112D18C0EE24FF24870114C020E022168B
:1016800020E0320620E0420621E0520630F058E128
:10169000E52EF12C012D112D05C040E1E42EF12C99
:1016A000012D112DD201C1010E2C04C0B695A795B4
:1016B000979587950A94D2F789519F4FDC012C9119
:1016C00030E2A32EB12CC12CD12CD601C5018E192C
:1016D0009F09A00BB10B7C018D01E21AF1080109F1
:1016E00011096596ECAEFDAE0EAF1FAF6597E11424
:1016F000F1040105110539F464015301A218B3087E
:10170000C408D508ECC06296FFAC6297E496FFAEC1
:10171000E4970F2C04C0220C331C441C551C0A9463
:10172000D2F78A2D8F1964015301082E04C0D69474
:10173000C794B794A7940A94D2F7A401930104C064
:10174000220F331F441F551FFA94D2F7E8966CAC52
:101750007DAC8EAC9FACE89704C096948794779448
:1017600067948A95D2F784017301E22AF32A042B45
:10177000152B2996ECAEFDAE0EAF1FAF29973201A7
:101780008824992492018101207030706D960CAFED
:101790001DAF2EAF3FAF6D97C601B501A4019301F8
:1017A0000E9469267B018C01C601B501A401930149
:1017B0000E946926CA01B9016D962CAD3DAD4EADB2
:1017C0005FAD6D970E9437269B01AC018701FF2416
:1017D000EE242996ACACBDACCEACDFAC2997C601EB
:1017E000AA27BB275C016D01AE28BF28C02AD12AD9
:1017F000A216B306C406D50690F4A20CB31CC41CF2
:10180000D51CA214B304C404D50448F0A216B30630
:10181000C406D50620F4A20CB31CC41CD51CA21A05
:10182000B30AC40AD50AC601B501A40193010E94F6
:1018300069267B018C01C601B501A40193010E94B8
:101840006926CA01B9016D962CAD3DAD4EAD5FADB7
:101850006D970E9437269B01AC018701FF24EE247F
:1018600029968CAD9DADAEADBFAD2997A070B0707F
:1018700057016801A82AB92ACA2ADB2AA216B30688
:10188000C406D50690F4A20CB31CC41CD51CA2142B
:10189000B304C404D50448F0A216B306C406D506A2
:1018A00020F4A20CB31CC41CD51CE896ECACFDAC17
:1018B0000EAD1FADE897E4960FACE49704C0EE0CB4
:1018C000FF1C001F111F0A94D2F72D96ECAEFDAE3F
:1018D0000EAF1FAF2D97A21AB30AC40AD50A320160
:1018E000882499249201810120703070A1960CAF58
:1018F0001DAF2EAF3FAFA197C601B501A401930163
:101900000E9469267B018C01C601B501A4019301E7
:101910000E946926CA01B901A1962CAD3DAD4EAD1C
:101920005FADA1970E9437269B01AC018701FF2480
:10193000EE242D96ACACBDACCEACDFAC2D97C60181
:10194000AA27BB2757016801A82AB92ACA2ADB2A75
:10195000A216B306C406D50690F4A20CB31CC41C90
:10196000D51CA214B304C404D50448F0A216B306CF
:10197000C406D50620F4A20CB31CC41CD51CA21AA4
:10198000B30AC40AD50AC601B501A40193010E9495
:1019900069267B018C01C601B501A40193010E9457
:1019A0006926CA01B901A1962CAD3DAD4EAD5FAD22
:1019B000A1970E9437269B01AC018701FF24EE24EA
:1019C0002D968CAD9DADAEADBFAD2D97A070B07016
:1019D000E82AF92A0A2B1B2BE216F306040715073F
:1019E00090F4E20CF31C041D151DE214F30404052D
:1019F000150548F0E216F3060407150720F4E20C7B
:101A0000F31C041D151DE21AF30A040B150BD80173
:101A1000C70162960FAC629704C0B695A7959795DB
:101A200087950A94D2F789A79AA7ABA7BCA71DA64A
:101A30001EA61FA618AA898B8AA58A8B8BA58B8BBD
:101A40008CA58C8B8DA58D8B2FC36A147B048C0485
:101A50009D0448F4498B5A8B6B8B7C8B8D8B9E8BB2
:101A60002F8B388F27C300E0A01600E0B00601E0FE
:101A7000C00600E0D00688F41FEFA116B104C1042F
:101A8000D10439F030F028E0E22EF12C012D112D97
:101A900018C0EE24FF24870114C020E0A21620E025
:101AA000B20620E0C20621E0D20630F098E1E92E2D
:101AB000F12C012D112D05C080E1E82EF12C012D16
:101AC000112DD601C5010E2C04C0B695A79597958A
:101AD00087950A94D2F789519F4FDC012C9180E2BF
:101AE00090E0A0E0B0E08E199F09A00BB10B821B23
:101AF0009109A109B1090097A105B10509F059C0E3
:101B0000A614B704C804D90470F0E896ECACFDAC98
:101B10000EAD1FADE897E214F3040405150518F4A3
:101B2000D801C7012FC0E8968CAD9DADAEADBFAD5D
:101B3000E89782199309A409B509A40193012A1908
:101B40003B094C095D09AA24BB246501E8966CACED
:101B50007DAC8EAC9FACE897681679068A069B062A
:101B600028F411E0A12EB12CC12CD12C79018A01CD
:101B7000EA18FB080C091D096196ECAEFDAE0EAF2C
:101B80001FAF619789A79AA7ABA7BCA761960CADB9
:101B90001DAD2EAD3FAD61970DA71EA72FA738AB8A
:101BA000898B8AA58A8B8BA58B8B8CA58C8B0D8BB7
:101BB0007BC2E3968FAFE397A6019501082E04C080
:101BC000220F331F441F551F0A94D2F710E2181B2F
:101BD000E2961FAFE297D201C101012E04C0B69573
:101BE000A795979587950A94D2F75C016D01A22A73
:101BF000B32AC42AD52A2596ACAEBDAECEAEDFAE92
:101C0000259772016101E3960FACE39704C0CC0CF9
:101C1000DD1CEE1CFF1C0A94D2F72196CCAEDDAE83
:101C2000EEAEFFAE219764015301012E04C0D6949D
:101C3000C794B794A7940A94D2F7A4019301E396AA
:101C40000FACE39704C0220F331F441F551F0A94A3
:101C5000D2F7E8968CAD9DADAEADBFADE89704C0B0
:101C6000B695A795979587951A95D2F77C018D0122
:101C7000E22AF32A042B152BE9AEFAAE0BAF1CAF08
:101C8000E8960CAD1DAD2EAD3FADE897E3960FACD9
:101C9000E39704C0000F111F221F331F0A94D2F7CD
:101CA0000DAB1EAB2FAB38AF25962CAD3DAD4EAD79
:101CB0005FAD25973A018824992440705070A5960D
:101CC0002CAF3DAF4EAF5FAFA597C601B501A401E4
:101CD00093010E9469267B018C01C601B501A40114
:101CE00093010E946926C901DA011C012D01C2017C
:101CF000B101A5962CAD3DAD4EAD5FADA5970E944F
:101D000037269B01AC018701FF24EE24A9ACBAACB5
:101D1000CBACDCACC601AA27BB2757016801A82AB7
:101D2000B92ACA2ADB2AA216B306C406D50610F5BC
:101D3000089421083108410851082596ECACFDAC07
:101D40000EAD1FAD2597AE0CBF1CC01ED11EAE142C
:101D5000BF04C006D10670F0A216B306C406D506AD
:101D600048F408942108310841085108AE0CBF1C02
:101D7000C01ED11EA21AB30AC40AD50AC601B501F3
:101D8000A40193010E9469267B018C01C601B50163
:101D9000A40193010E946926C901DA013C014D01A9
:101DA000C401B301A5962CAD3DAD4EAD5FADA59779
:101DB0000E9437269B01AC018701FF24EE2489ADE8
:101DC0009AADABADBCADA070B07057016801A82A48
:101DD000B92ACA2ADB2AA216B306C406D50610F50C
:101DE0000894610871088108910825966CAD7DAD55
:101DF0008EAD9FAD2597A60EB71EC81ED91EA6167E
:101E0000B706C806D90670F0A216B306C406D506F2
:101E100048F408946108710881089108A60EB71E5D
:101E2000C81ED91ED601C501821B930BA40BB50B8E
:101E300089AB9AABABABBCABD101992788278401A6
:101E40007301E82AF92A0A2B1B2B8FEFA82E8FEF9C
:101E5000B82EC12CD12CAE20BF20C022D1227801B7
:101E60000027112721966CAC7DAC8EAC9FAC2197DE
:101E70002FEF3FEF40E050E0622273228422952250
:101E800021966CAD7DAD8EAD9FAD2197AC016627DF
:101E90007727AD964CAF5DAF6EAF7FAFAD97C60104
:101EA000B501A40193010E943726A9966CAF7DAFBE
:101EB0008EAF9FAFA997C601B501AD962CAD3DADD4
:101EC0004EAD5FADAD970E9437261B012C01C801B6
:101ED000B701A40193010E9437265B016C01C80180
:101EE000B701AD962CAD3DAD4EAD5FADAD970E9447
:101EF00037267B018C01A6019501220D331D441D5F
:101F0000551DA9966CAC7DAC8EAC9FACA997C40155
:101F1000AA27BB27280F391F4A1F5B1F2A153B051D
:101F20004C055D0548F4812C912CE1E0AE2EB12CDE
:101F3000E80CF91C0A1D1B1DCA01AA27BB27570163
:101F40006801A80EB91ECA1EDB1EA901332722276D
:101F5000A9968CAD9DADAEADBFADA997A070B07088
:101F6000280F391F4A1F5B1FE9A8FAA80BA91CA953
:101F7000EA14FB040C051D0570F0AE14BF04C00686
:101F8000D10689F56DA97EA98FA998AD621773074F
:101F90008407950740F5DA01C90121966CAC7DAC48
:101FA0008EAC9FAC219786199709A809B909259687
:101FB000ECACFDAC0EAD1FAD2597AE18BF08C00A46
:101FC000D10AEE24FF248701281739074A075B0747
:101FD00028F421E0E22EF12C012D112DAE18BF08BE
:101FE000C00AD10A02C0DA01C9016DA87EA88FA873
:101FF00098AC681A790A8A0A9B0A09A91AA92BA916
:102000003CA90A191B092C093D0958016901222420
:10201000332421012DA93EA94FA958AD2615370516
:102020004805590528F481E0282E312C412C512CEB
:1020300086017501E218F30804091509A801970142
:10204000E2960FACE29704C0220F331F441F551FC6
:102050000A94D2F7D401C301E3960FACE39704C00E
:10206000B695A795979587950A94D2F7282B392B83
:102070004A2B5B2B29A73AA74BA75CA7E3960FAC8B
:10208000E39704C016950795F794E7940A94D2F75E
:10209000EDA6FEA60FA718AB298B8AA58A8B8BA568
:1020A0008B8B8CA58C8BED8A8EA58E8B8FA58F8BC1
:1020B00088A9888FE1964CAD5DAD6EAD7FADE1979F
:1020C000411551056105710509F467C089892A899F
:1020D0003B894C895D89AE89BF89188DF82FF195B0
:1020E00091E01F1608F090E0822F819521E01816EC
:1020F00008F020E0E82FE91B91E08E1708F090E04F
:10210000292B832F819531E0181608F030E0782FC5
:10211000721B91E0871708F090E0392B842F81958E
:1021200021E0181608F020E0682F631B91E0861765
:1021300008F090E0292B852F819531E0181608F0E2
:1021400030E0582F521B91E0851708F090E0392BB2
:102150008A2F819521E0181608F020E0482F431BB4
:1021600091E0841708F090E0292B8B2F819591E066
:10217000181608F090E0382F321B21E0831708F082
:1021800020E0922B812F8195891BF98BEA8B7B8B29
:102190006C8B5D8B4E8B3F8B888F29893A894B895D
:1021A0005C896D897E898F89988DC958DF4FE2E1FE
:1021B0000C94BB26A0E0B0E0E0EEF0E10C949F268A
:1021C000DC012B01FA019C91923008F439C1EB013A
:1021D0008881823008F433C1943069F4843009F086
:1021E0002FC111969C9111978981981709F428C1E4
:1021F000AFEDB0E025C1843009F421C18230A9F4EB
:10220000923009F01DC19A01AD0188E0EA01099000
:10221000AE01E90109929E018150C1F7E201898175
:1022200011969C918923818308C1923009F407C1DA
:1022300012962D903C901397EB018A819B81149606
:10224000AD90BD90CD90DC901797EC80FD800E8115
:102250001F819101281B390BB90137FF04C0662784
:102260007727621B730B603271050CF061C0121688
:1022700013066CF537014801062E04C09694879426
:10228000779467940A94D2F721E030E040E050E080
:1022900004C0220F331F441F551F6A95D2F72150E7
:1022A0003040404050402E213F21402351232115F2
:1022B00031054105510521F021E030E040E050E0DA
:1022C00079018A01E628F728082919293CC0232B1F
:1022D000D1F1260E371E35014601062E04C0969414
:1022E0008794779467940A94D2F721E030E040E035
:1022F00050E004C0220F331F441F551F6A95D2F7C8
:1023000021503040404050402A213B214C215D214A
:10231000211531054105510521F021E030E040E073
:1023200050E059016A01A628B728C828D9280BC04F
:10233000821593052CF01C01AA24BB24650103C05F
:10234000EE24FF24870111969C91D20111968C9165
:10235000981709F445C0992339F0A80197012A1963
:102360003B094C095D0906C0A60195012E193F09DC
:10237000400B510B57FD08C0118233822282248307
:102380003583468357831DC081E081833382228257
:1023900088279927DC01821B930BA40BB50B848340
:1023A0009583A683B7830DC0220F331F441F551F8B
:1023B0002483358346835783828193810197938356
:1023C00082832481358146815781DA01C9010197D1
:1023D000A109B1098F5F9F4FAF4FBF4328F30BC0D7
:1023E000918333822282EA0CFB1C0C1D1D1DE482AA
:1023F000F5820683178383E08083248135814681BB
:10240000578157FF1AC0C901AA2797FDA095BA2F77
:1024100081709070A070B07056954795379527954C
:10242000822B932BA42BB52B84839583A683B78310
:1024300082819381019693838283DF0101C0D2015F
:10244000CD01CDB7DEB7E2E10C94BB26A0E2B0E04F
:10245000ECE2F2E10C94AB2669837A838B839C8354
:102460002D833E834F835887E9E0EE2EF12CEC0E4E
:10247000FD1ECE010196B7010E944B168E010F5E24
:102480001F4FCE010596B8010E944B168A8991E034
:1024900089278A8BC701B801AE01475E5F4F0E9452
:1024A000DA100E947615A096E6E00C94C726A0E20A
:1024B000B0E0EDE5F2E10C94AB2669837A838B837F
:1024C0009C832D833E834F835887F9E0EF2EF12CB8
:1024D000EC0EFD1ECE010196B7010E944B168E0137
:1024E0000F5E1F4FCE010596B8010E944B16C70123
:1024F000B801AE01475E5F4F0E94DA100E94761568
:10250000A096E6E00C94C726A0E2B0E0EAE8F2E18B
:102510000C949F2669837A838B839C832D833E83CF
:102520004F835887CE010196BE01675F7F4F0E949F
:102530004B16CE010596BE016F5E7F4F0E944B1673
:102540009985923088F089898230C8F0943019F4E6
:10255000823051F404C0843029F4923081F48FED3C
:1025600090E0C6C0923049F420E09A858A89981399
:1025700021E02A87CE010996BBC0823049F420E0D1
:102580009A858A89981321E02A8BCE014196B0C0A2
:102590002D843E844F8458886D887E888F88988CDF
:1025A000EE24FF248701AA24BB24650140E050E00B
:1025B00060E070E0E0E0F0E0C10181709070892B94
:1025C000E9F0E60CF71C081D191D9A01AB012A0D54
:1025D0003B1D4C1D5D1D80E090E0A0E0B0E0E614E6
:1025E000F7040805190520F481E090E0A0E0B0E0D0
:1025F000BA01A901480F591F6A1F7B1FAA0CBB1CF7
:10260000CC1CDD1C97FE08C081E090E0A0E0B0E0AB
:10261000A82AB92ACA2ADB2A3196E032F10549F004
:10262000660C771C881C991C569447943794279401
:10263000C3CFFA85EA892B893C898B859C85280F35
:10264000391F2E5F3F4F17C0CA0181709070892BD0
:1026500061F016950795F794E79480E090E0A0E08C
:10266000B0E8E82AF92A0A2B1B2B7695679557952F
:1026700047952F5F3F4F77FDE7CF0CC0440F551FA5
:10268000661F771F17FD4160EE0CFF1C001F111F16
:1026900021503040403090E0590790E0690790E4C5
:1026A000790760F32B8F3C8FDB01CA018F77907025
:1026B000A070B07080349105A105B10561F447FDAB
:1026C0000AC0E114F1040105110529F0405C5F4FD7
:1026D0006F4F7F4F40781A8EFE1711F081E08A8F7E
:1026E0004D8F5E8F6F8F78A383E0898FCE014996DF
:1026F0000E947615A096E2E10C94BB26A8E1B0E01A
:10270000E4E8F3E10C94A72669837A838B839C83A6
:102710002D833E834F835887B9E0EB2EF12CEC0ECE
:10272000FD1ECE010196B7010E944B168E010F5E71
:102730001F4FCE010596B8010E944B162985223005
:1027400008F47EC03989323010F4B8017CC08A8523
:102750009A8989278A87243011F0223031F423178F
:1027600009F06EC06FED70E06EC0343039F41D8634
:102770001E861F86188A1C861B8604C0323021F4F0
:1027800084E08987B7015FC02B853C858B899C8954
:10279000281B390B3C872B87ED84FE840F85188915
:1027A000AD88BE88CF88D88CEA14FB040C051D05C3
:1027B00040F4EE0CFF1C001F111F215030403C87DD
:1027C0002B8720E030E040E050E080E090E0A0E0A7
:1027D000B0E460E070E0EA14FB040C051D0540F075
:1027E000282B392B4A2B5B2BEA18FB080C091D09F7
:1027F000B695A79597958795EE0CFF1C001F111FA6
:102800006F5F7F4F6F31710531F7DA01C9018F7743
:102810009070A070B07080349105A105B10561F48D
:1028200027FD0AC0E114F1040105110529F0205C1F
:102830003F4F4F4F5F4F20782D873E874F87588BF4
:10284000BE01675F7F4FCB010E9476156896EAE074
:102850000C94C326A8E1B0E0E0E3F4E10C94AB26CD
:1028600069837A838B839C832D833E834F83588730
:1028700089E0E82EF12CEC0EFD1ECE010196B70189
:102880000E944B168E010F5E1F4FCE010596B801B8
:102890000E944B168985823040F08989823028F069
:1028A000C701B8010E94C31601C08FEF6896E6E029
:1028B0000C94C726ACE0B0E0E0E6F4E10C94AF265F
:1028C00069837A838B839C83CE010196BE016B5F03
:1028D0007F4F0E944B168D81823061F1823050F122
:1028E000843021F48E81882351F12EC02F813885C8
:1028F00037FD20C06E812F3131051CF06623F9F0C1
:1029000023C08EE190E0821B930B29853A854B858D
:102910005C8504C056954795379527958A95D2F7DB
:102920006623B1F050954095309521953F4F4F4F1C
:102930005F4F0EC020E030E040E050E009C02FEFD4
:102940003FEF4FEF5FE704C020E030E040E050E8A9
:10295000B901CA012C96E2E00C94CB26A8E0B0E0C5
:10296000E4EBF4E10C94A7267B018C016115710561
:102970008105910519F482E0898360C083E0898331
:102980008EE1C82ED12CDC82CB82ED82FE820F83B9
:102990001887C801B7010E942715FC013197F7FF7E
:1029A0003BC0222733272E1B3F0B57016801022E05
:1029B00004C0D694C794B794A7940A94D2F740E081
:1029C00050E060E070E081E090E0A0E0B0E004C0A2
:1029D000880F991FAA1FBB1F2A95D2F70197A1093B
:1029E000B1098E219F21A023B1230097A105B10534
:1029F00021F041E050E060E070E04A295B296C2959
:102A00007D294D835E836F8378878EE190E08E1BF6
:102A10009F0B9C838B8312C0309781F00E2E04C0D5
:102A2000EE0CFF1C001F111F0A94D2F7ED82FE82EC
:102A30000F831887CE1ADF0ADC82CB821A82CE017E
:102A400001960E9476152896EAE00C94C326EF9230
:102A5000FF920F931F937B018C0180E0E81680E0CA
:102A6000F80681E0080780E0180788F48FEFE81681
:102A7000F1040105110531F028F088E090E0A0E0B4
:102A8000B0E017C080E090E0A0E0B0E012C080E0CD
:102A9000E81680E0F80680E0080781E0180728F0D3
:102AA00088E190E0A0E0B0E004C080E190E0A0E028
:102AB000B0E020E230E040E050E0281B390B4A0B48
:102AC0005B0B04C016950795F794E7948A95D2F7A7
:102AD000F701E951FF4F8081281B31094109510954
:102AE000C9011F910F91FF90EF900895DF92EF922F
:102AF000FF920F931F93FC01E480F58006811781FC
:102B0000D1808081823048F480E090E0A0E1B0E0A4
:102B1000E82AF92A0A2B1B2BA5C0843009F49FC090
:102B2000823021F4EE24FF24870105C0E114F10472
:102B30000105110519F4E0E0F0E096C062817381AF
:102B40009FEF623879070CF05BC022E83FEF261B4D
:102B5000370B2A3131052CF020E030E040E050E026
:102B60002AC0B801A701022E04C076956795579533
:102B700047950A94D2F781E090E0A0E0B0E004C06D
:102B8000880F991FAA1FBB1F2A95D2F70197A10989
:102B9000B1098E219F21A023B1230097A105B10582
:102BA00021F081E090E0A0E0B0E09A01AB01282B99
:102BB000392B4A2B5B2BDA01C9018F779070A070FB
:102BC000B07080349105A105B10539F427FF09C023
:102BD000205C3F4F4F4F5F4F04C0215C3F4F4F4F32
:102BE0005F4FE0E0F0E02030A0E03A07A0E04A07C5
:102BF000A0E45A0710F0E1E0F0E079018A0127C073
:102C00006038710564F5FB01E158FF4FD801C70139
:102C10008F779070A070B07080349105A105B105D8
:102C200039F4E7FE0DC080E490E0A0E0B0E004C01D
:102C30008FE390E0A0E0B0E0E80EF91E0A1F1B1F32
:102C400017FF05C016950795F794E794319687E02E
:102C500016950795F794E7948A95D1F705C0EE2469
:102C6000FF248701EFEFF0E06E2F679566276795E9
:102C7000902F9F77D794DD24D7948E2F8695492F58
:102C8000462B582F5D29B701CA011F910F91FF9064
:102C9000EF90DF900895FC01DB014081518122819A
:102CA000622F6F7770E0221F2227221F9381892FC6
:102CB000880F822B282F30E0991F9927991F119692
:102CC0009C93119721153105A9F541155105610511
:102CD000710511F482E037C082E89FEF13969C9350
:102CE0008E9312979A01AB0167E0220F331F441FA6
:102CF000551F6A95D1F783E08C930DC0220F331FC7
:102D0000441F551F12968D919C911397019713960E
:102D10009C938E931297203080E0380780E048071C
:102D200080E4580758F314962D933D934D935C938C
:102D3000179708952F3F310579F441155105610525
:102D4000710519F484E08C93089564FF03C081E059
:102D50008C9312C01C9210C02F57304013963C9396
:102D60002E93129783E08C9387E0440F551F661FC4
:102D7000771F8A95D1F7706414964D935D936D9388
:102D80007C93179708951F93DC01FB019C9192306F
:102D900008F447C08081823008F443C0943051F475
:102DA00011961C91843099F58181682F70E0611B28
:102DB00071093FC0843021F0923031F48230B9F192
:102DC0008181882389F12DC011961C911197823041
:102DD000F1F081811817D9F412962D913C91139737
:102DE000828193818217930794F028173907BCF0EA
:102DF00014968D919D910D90BC91A02D24813581CB
:102E000046815781281739074A075B0718F41123B1
:102E100041F00AC082179307A407B50740F41123B5
:102E200019F061E070E005C06FEF7FEF02C060E075
:102E300070E0CB011F91089581B5886081BD089530
:102E400088E181BD11BC089591B5987F91BD91B580
:102E5000982B91BD08955D9BFECF8CB9089520E01D
:102E600004C05D9BFECFECB92F5FFC01E20FF11DAA
:102E7000E081EE23B1F75D9BFECF1CB808955F9B08
:102E8000FECF8CB190E00895AC0120E05F9BFECFB7
:102E90008CB1FA01E20FF11D8083882311F02F5FBE
:102EA000F5CF089590932902809328020895909376
:102EB000270280932602089590932B0280932A0282
:102EC00008958CB908951F920F920FB60F92112496
:102ED0002F933F934F935F936F937F938F939F9322
:102EE000AF93BF93EF93FF93E0912602F0912702F7
:102EF000309719F08CB190E00995FF91EF91BF9157
:102F0000AF919F918F917F916F915F914F913F9181
:102F10002F910F900FBE0F901F9018951F920F9238
:102F20000FB60F9211242F933F934F935F936F939C
:102F30007F938F939F93AF93BF93EF93FF93E09112
:102F40002A02F0912B02309709F00995FF91EF9139
:102F5000BF91AF919F918F917F916F915F914F91B1
:102F60003F912F910F900FBE0F901F9018951F92B9
:102F70000F920FB60F9211242F933F934F935F93AD
:102F80006F937F938F939F93AF93BF93EF93FF9331
:102F9000E0912802F0912902309709F00995FF91FC
:102FA000EF91BF91AF919F918F917F916F915F91C1
:102FB0004F913F912F910F900FBE0F901F9018953A
:102FC0001AB82AB128692AB920E820BD20B520689E
:102FD00020BD20B5266820BD90BD89B983E061E0A1
:102FE00041E00E94A31B83E060E040E00E94A31B3D
:102FF000089585B5877B85BD85B585BD89B7806416
:1030000089BF85B58F7785BD089585B5887F85BDD6
:1030100085B5826085BD089585B5887F85BD85B5F8
:1030200085BD089584BD089583BD089590932F02B2
:1030300080932E02089590932D0280932C02089580
:10304000982F80E064E670E00E94562663BD0895E4
:103050001F920F920FB60F9211242F933F934F930D
:103060005F936F937F938F939F93AF93BF93EF93F0
:10307000FF93E0912E02F0912F02309709F009950D
:10308000FF91EF91BF91AF919F918F917F916F9140
:103090005F914F913F912F910F900FBE0F901F9016
:1030A00018951F920F920FB60F9211242F933F93F2
:1030B0004F935F936F937F938F939F93AF93BF9340
:1030C000EF93FF93E0912C02F0912D02309709F0DD
:1030D0000995FF91EF91BF91AF919F918F917F9152
:1030E0006F915F914F913F912F910F900FBE0F9075
:1030F0001F9018958FB58C7F8FBD8EB5877E8EBD46
:103100008FB58F708FBD8FB58FBD8FB58FBD89B7D0
:10311000846089BF8FB58B7F8FBD8FB5877F8FBD53
:1031200008958EB5887F8EBD8EB585608EBD08955D
:103130008EB5887F8EBD8EB58EBD08959DBD8CBD2C
:1031400090933D0280933C0208959BBD8ABD0895F3
:1031500099BD88BD089590933102809330020895FF
:1031600090933302809332020895909335028093B6
:1031700034020895909337028093360208951BBC61
:103180001ABC089519BC18BC089597BD86BD089552
:1031900089B78F7D89BF0895882319F0813041F464
:1031A00004C08EB58F7B8EBD08958EB580648EBDB4
:1031B000089526B537B5C90108951F920F920FB62D
:1031C0000F9211242F933F934F935F936F937F93AD
:1031D0008F939F93AF93BF93EF93FF93E09136024A
:1031E000F0913702309709F00995FF91EF91BF9167
:1031F000AF919F918F917F916F915F914F913F918F
:103200002F910F900FBE0F901F9018951F920F9245
:103210000FB60F9211242F933F934F935F936F93A9
:103220007F938F939F93AF93BF93EF93FF93E0911F
:103230003202F0913302309709F00995FF91EF9136
:10324000BF91AF919F918F917F916F915F914F91BE
:103250003F912F910F900FBE0F901F9018951F92C6
:103260000F920FB60F9211242F933F934F935F93BA
:103270006F937F938F939F93AF93BF93EF93FF933E
:10328000E0913402F0913502309709F00995FF91F1
:10329000EF91BF91AF919F918F917F916F915F91CE
:1032A0004F913F912F910F900FBE0F901F90189547
:1032B0001F920F920FB60F9211242F933F934F93AB
:1032C0005F936F937F938F939F93AF93BF93EF938E
:1032D000FF93E0913002F09131023097E9F02091B4
:1032E00038023091390280913A0290913B022817BE
:1032F000390761F4109239021092380209958091D1
:103300003C0290913D029DBD8CBD06C02F5F3F4F9A
:103310003093390220933802FF91EF91BF91AF9122
:103320009F918F917F916F915F914F913F912F91DD
:103330000F900FBE0F901F901895CF92DF92EF92D3
:10334000FF920F931F936B01109239021092380273
:10335000A0E0B0E0BC01CD010E94AE142FE632E146
:1033600043E056E40E947E137B018C010E94DF261D
:103370000E94490070933B0260933A02D09231025E
:10338000C092300280E090E00E94AE14A801970144
:103390000E9426120E9449007DBD6CBD70933D02C3
:1033A00060933C021F910F91FF90EF90DF90CF90C0
:1033B00008958FB58C7F8FBD8EB5877E8EBD89B702
:1033C000846289BF83E066E040E00E94A31B8EB563
:1033D00080648EBD8EB582608EBD8EB58A7F8EBDB7
:1033E000089583B7877B83BF83B783BF89B7816025
:1033F00089BF83B78F7C83BF83B783BF83B78F7742
:1034000083BF089583B7887F83BF83B7856083BFF9
:10341000089583B7887F83BF83B783BF089582BF32
:103420008093440208958CBF08958CB708959093BB
:10343000410280934002089590933F0280933E02A0
:103440000895982F80E064E670E00E9456266CBFD5
:1034500008951F920F920FB60F9211242F933F934E
:103460004F935F936F937F938F939F93AF93BF938C
:10347000EF93FF93E0914002F0914102309709F001
:103480000995FF91EF91BF91AF919F918F917F919E
:103490006F915F914F913F912F910F900FBE0F90C1
:1034A0001F9018951F920F920FB60F9211242F9311
:1034B0003F934F935F936F937F938F939F93AF93BC
:1034C000BF93EF93FF93E0913E02F0913F0230975C
:1034D000D1F02091460230914702809142029091B2
:1034E00043022817390749F4109247021092460206
:1034F00009958091440282BF06C02F5F3F4F3093F1
:10350000470220934602FF91EF91BF91AF919F91A7
:103510008F917F916F915F914F913F912F910F907C
:103520000FBE0F901F901895CF92DF92EF92FF92EF
:103530000F931F936A011092470210924602A0E077
:10354000B0E0BC01CD010E94AE142FE632E143E0B1
:1035500052E40E947E137B018C010E94DF260E94B0
:1035600049007093430260934202D0923F02C0929E
:103570003E0280E090E00E94AE14A80197010E94F4
:1035800026120E94490062BF609344021F910F916E
:10359000FF90EF90DF90CF9008950E94091E0E9447
:1035A00093230E9415220E94DD220E94DC1A0E94B1
:1035B000F1190E94921B08958FB780688FBF0895FC
:1035C0008FB78F778FBF0895613051F0613018F059
:1035D000623079F40AC09093740280937302089564
:1035E0009093720280937102089590937602809373
:1035F000750208951F920F920FB60F9211242F9308
:103600003F934F935F936F937F938F939F93AF936A
:10361000BF93EF93FF93E0917302F09174020995C9
:10362000FF91EF91BF91AF919F918F917F916F919A
:103630005F914F913F912F910F900FBE0F901F9070
:1036400018951F920F920FB60F9211242F933F934C
:103650004F935F936F937F938F939F93AF93BF939A
:10366000EF93FF93E0917102F09172020995FF913F
:10367000EF91BF91AF919F918F917F916F915F91EA
:103680004F913F912F910F900FBE0F901F90189563
:103690001F920F920FB60F9211242F933F934F93C7
:1036A0005F936F937F938F939F93AF93BF93EF93AA
:1036B000FF93E0917502F09176020995FF91EF91E9
:1036C000BF91AF919F918F917F916F915F914F913A
:1036D0003F912F910F900FBE0F901F90189581E092
:1036E00062E040E00E94A31B81E062E041E00E94B2
:1036F000261C8BB780628BBF84B78F7B84BF0895F5
:1037000083E063E040E00E94A31B83E063E041E0CC
:103710000E94261C8BB780688BBF85B7837F88602B
:1037200085BF089583E062E040E00E94A31B83E030
:1037300062E041E00E94261C8BB780648BBF85B796
:10374000836085BF08958130E9F0813030F08230A8
:1037500071F1833009F054C03FC08AB321E030E0FA
:10376000062E02C0220F331F0A94E2F72095282369
:10377000842F90E002C0880F991F6A95E2F7282BEA
:103780002ABB089587B321E030E0062E02C0220F45
:10379000331F0A94E2F720952823842F90E002C07B
:1037A000880F991F6A95E2F7282B27BB089584B3E9
:1037B00021E030E0062E02C0220F331F0A94E2F708
:1037C00020952823842F90E002C0880F991F6A95C6
:1037D000E2F7282B24BB089581B321E030E0062EC8
:1037E00002C0220F331F0A94E2F720952823842F6A
:1037F00090E002C0880F991F6A95E2F7282B21BB41
:103800000895813071F0813028F0823089F0833062
:10381000E1F415C0662311F41ABA08958FEF8ABB3C
:103820000895662311F417BA08958FEF87BB0895A2
:10383000662311F414BA08958FEF84BB08956623AC
:1038400011F411BA08958FEF81BB08958130E9F02A
:10385000813030F0823071F1833009F054C03FC0C4
:103860008BB321E030E0062E02C0220F331F0A94F2
:10387000E2F720952823842F90E002C0880F991F3B
:103880006A95E2F7282B2BBB089588B321E030E03E
:10389000062E02C0220F331F0A94E2F72095282338
:1038A000842F90E002C0880F991F6A95E2F7282BB9
:1038B00028BB089585B321E030E0062E02C0220F18
:1038C000331F0A94E2F720952823842F90E002C04A
:1038D000880F991F6A95E2F7282B25BB089582B3BC
:1038E00021E030E0062E02C0220F331F0A94E2F7D7
:1038F00020952823842F90E002C0880F991F6A9595
:10390000E2F7282B22BB0895813049F0813028F05E
:10391000823039F0833041F406C06BBB089568BB38
:10392000089565BB089562BB0895813049F08130E8
:1039300028F0823039F08330B1F40DC089B303C070
:1039400086B301C083B390E002C0959587956A95D0
:10395000E2F78170089580B390E002C09595879555
:103960006A95E2F781700895813049F0813028F03E
:10397000823039F0833041F406C089B3089586B3AC
:10398000089583B3089580B30895813091F0813014
:1039900028F08230C9F0833061F521C02BB381E07B
:1039A00090E002C0880F991F6A95E2F728272BBB89
:1039B000089528B381E090E002C0880F991F6A95AE
:1039C000E2F7282728BB089525B381E090E002C0E4
:1039D000880F991F6A95E2F7282725BB089522B31F
:1039E00081E090E002C0880F991F6A95E2F72827CE
:1039F00022BB0895813059F0813028F0823059F08F
:103A0000833081F40CC08BB380958BBB089588B351
:103A1000809588BB089585B3809585BB089582B352
:103A2000809582BB089586B1887F86B986B187600C
:103A300086B9089528EC209353029093490280930D
:103A4000480287B1807E862B87B986B1886486B9A3
:103A5000089597B1907E982B97B9369A3699FECFF4
:103A600024B135B1C901089537980895FC0189EC56
:103A700080935302A081B181B0934F02A0934E0274
:103A80008281938190934D0280934C028481958131
:103A900090934B0280934A028681978190935102C2
:103AA000809350021092520287B1807E87B99C9118
:103AB000892B87B986B1886486B9089537980895A7
:103AC000379A08951F920F920FB60F9211242F93D9
:103AD0003F934F935F936F937F938F939F93AF9396
:103AE000BF93EF93FF9380915302883C69F4E09178
:103AF0004802F09149023097E9F184B195B1909371
:103B000001008093000011C0893CA1F54091520250
:103B1000242F30E080914A0290914B028217930744
:103B200039F4E0915002F09151020995339822C086
:103B300084B195B1220F331FE0914C02F0914D02F8
:103B4000E20FF31F918380834F5F4093520283E023
:103B500067E00E94C51C97B1907E97B98091520290
:103B6000E0914E02F0914F02E80FF11D8081982BF9
:103B700097B9369AFF91EF91BF91AF919F918F9135
:103B80007F916F915F914F913F912F910F900FBE59
:103B90000F901F90189580E060E040E00E94A31B0A
:103BA00080E061E040E00E94A31B86B1887F86B977
:103BB00086B1876086B9359887B18F71806487B97F
:103BC000379A0895A0E0B0E0BC01CD0124EF31E0C8
:103BD00040E050E00E9437262FEF33E040E050E015
:103BE0000E946926822F089580E00E94291DA0E08E
:103BF000B0E0BC01CD0124EF31E040E050E00E9494
:103C000037262FEF33E040E050E00E946926822FF4
:103C100008950E94CB1D08950895882319F08130DE
:103C200091F409C082E1809354020E94121882E04C
:103C30008093550208958CE3809354020E941218D9
:103C400089E08093550208950E940C1808950E94FF
:103C5000051808950E94F91780E060E041E00E9495
:103C6000A31B86E39EE10E941B18089580915602D3
:103C70008F5F8093560290915502891759F480E026
:103C800060E040E00E94261C9091540280EE891B67
:103C90000E941218809156028E3459F480E060E040
:103CA00041E00E94261C809154020E94121810923A
:103CB00056020895AF92BF92CF92DF92EF92FF9299
:103CC0000F931F93A0E0B0E028E8A22E23E1B22ECC
:103CD000C12CD12CBC01CD0128E833E140E050E0FB
:103CE0000E9437262FEF33E040E050E00E94692623
:103CF00079018A01C801B70128EE33E040E050E0C5
:103D00000E943726AE18BF08C00AD10AA601950145
:103D10000E946926C9011F910F91FF90EF90DF90DB
:103D2000CF90BF90AF900895AF92BF92CF92DF92A5
:103D3000EF92FF920F931F9381E00E94291DA0E054
:103D4000B0E038E8A32E33E1B32EC12CD12CBC0156
:103D5000CD0128E833E140E050E00E9437262FEF04
:103D600033E040E050E00E94692679018A01C801F1
:103D7000B70128EE33E040E050E00E943726AE184D
:103D8000BF08C00AD10AA60195010E946926C9018F
:103D90001F910F91FF90EF90DF90CF90BF90AF9069
:103DA00008950E94CB1D08952F923F924F925F92EB
:103DB0006F927F928F929F92AF92BF92CF92DF923B
:103DC000EF92FF920F931F93DF93CF93CDB7DEB7A0
:103DD0002F970FB6F894DEBF0FBECDBF422E332E05
:103DE0004A016D877E878F87592EFE0131968AE0C2
:103DF000DF011D928A95E9F797FD02C0222460C079
:103E00008DE28983219591E0121608F090E0332D20
:103E1000319551E0131608F050E0F32EF91A91E0B5
:103E20003F1508F090E0592B482D419561E014169C
:103E300008F060E0042F051B91E0401708F090E0C7
:103E4000692B592D519571E0151608F070E0152F6A
:103E5000161B91E0511708F090E0792B6D85619564
:103E6000E1E0161608F0E0E0B62FB71B91E06B1703
:103E700008F090E0E92B7E857195F1E0171608F0C7
:103E8000F0E0A72FAE1B91E07A1708F090E0F92B35
:103E90008F858195E1E0181608F0E0E0982F9F1BD0
:103EA000F92F91E08F1708F090E0E92B5194422E02
:103EB0003F2C4801BD87AE87FF875E1A22242394DA
:103EC000622C7724A1E0B0E0AC0FBD1FA60DB71D9A
:103ED000BC87AB87242D332DA4016D857E858F850E
:103EE000952DEAE0AE2EBB24CC24DD24EE24FF2465
:103EF00000E010E00E949D08205DEB85FC8520839A
:103F0000242D332DA4016D857E858F85952D0E94EE
:103F10007500422E332E4A016D877E878F87592E7A
:103F2000822F832988298929862B872BFF858F2B30
:103F3000852931F46C0E7D1ED30112961C9205C0AA
:103F40002394B8E0B21508F0BBCF89818D3211F00F
:103F500080E003C08093570281E0622D70E0DE01B3
:103F60001196A60FB71F992787FD9095FC01E95A76
:103F7000FD4F20E030E08C010AC08C918083461711
:103F8000570709F411821197215030403196A8014A
:103F9000421B530B6417750784F787E592E02F9651
:103FA0000FB6F894DEBF0FBECDBFCF91DF911F914A
:103FB0000F91FF90EF90DF90CF90BF90AF909F90C8
:103FC0008F907F906F905F904F903F902F900895CB
:103FD0000895089508951F93182F80E067E040E04A
:103FE0000E94261C80E064E040E00E94261C80E0E5
:103FF00066E041E00E94261C412F4295417082E01C
:1040000064E00E94261C412F42954695417082E053
:1040100065E00E94261C412F4295469546954170C9
:1040200082E066E00E94261C412F441F4427441F63
:1040300082E067E00E94261C80E066E040E00E948B
:10404000261C80E066E041E00E94261C412F417062
:1040500082E064E00E94261C412F4695417082E078
:1040600065E00E94261C16951695412F417082E04E
:1040700066E00E94261C1695117082E067E0412FD1
:104080000E94261C80E066E040E00E94261C1F91F2
:10409000089582E00E94EB1F0895882319F0813073
:1040A00041F404C088E10E94EB1F08958CE10E9456
:1040B000EB1F0895882319F0813051F405C0862F35
:1040C00080580E94EB1F0895862F80540E94EB1F9A
:1040D000089581E00E94EB1F84EF9BE00197F1F7C8
:1040E00008951F93182F80E066E041E00E94261C8F
:1040F00080E067E041E00E94261C80E064E040E050
:104100000E94261C412F4295417082E064E00E948B
:10411000261C412F42954695417082E065E00E9441
:10412000261C412F429546954695417082E066E0F7
:104130000E94261C412F441F4427441F82E067E051
:104140000E94261C80E066E040E00E94261C80E081
:1041500066E041E00E94261C412F417082E064E04D
:104160000E94261C412F4695417082E065E00E9426
:10417000261C16951695412F417082E066E00E943C
:10418000261C1695117082E067E0412F0E94261CC4
:1041900080E066E040E00E94261C8AE18A95F1F703
:1041A0001F9108950F931F93CF93DF938C01862F58
:1041B000880F880F880F805C0E94EB1F88E78A9524
:1041C000F1F7C0E0D0E0F801EC0FFD1F80810E9404
:1041D00071202196C830D105B1F7DF91CF911F91A1
:1041E0000F9108950F931F93162F042F813091F094
:1041F000813028F08230C9F0833071F521C087EE1C
:1042000091E060E00E94D220812F602F0E945A200E
:1042100080E020C08EEE91E061E00E94D220812FEC
:10422000602F0E945A2081E015C085EF91E062E086
:104230000E94D220812F602F0E945A2082E00AC063
:104240008DEF91E063E00E94D220812F602F0E94C9
:104250005A2083E00E9471201F910F9108950E94BF
:10426000712008951F93CF93DF930E94D41EEC0119
:1042700010E003C00E9471201F5FFE01E10FF11DDD
:1042800080818823B9F7DF91CF911F9108951F9303
:10429000CF93DF93EC0110E003C00E9471201F5FF9
:1042A000FE01E10FF11D80818823B9F7DF91CF91E5
:1042B0001F9108954F925F926F927F928F929F927B
:1042C000AF92BF92CF92DF92EF92FF920F931F9324
:1042D000DF93CF93CDB7DEB72E970FB6F894DEBF3E
:1042E0000FBECDBF6B877C878D879E87FE01319681
:1042F0008AE0DF011D928A95E9F76B857C858D85C3
:104300009E850E9449003B014C015B016C019B01B1
:10431000A60160E070E080E090E00E94D41E9C0165
:10432000442401C04394642D70E0F901E60FF71FA7
:1043300080818823B9F7A90120E030E0DE011196E1
:104340000AC08D01020F131FFA018191AF01F8011C
:1043500080832F5F3F4F2415A0F3A60FB71F8EE277
:104360008C93F3E05F2E80E09AE0599E502C11244C
:104370008F5F8830D1F7C401B3010E94AE149B0156
:10438000AC016B857C858D859E850E9426127B0104
:104390008C01652D70E080E090E00E94AE149B01DE
:1043A000AC01C801B7010E9484120E9449005B0160
:1043B0006C019B01A60160E070E080E090E00E944B
:1043C000D41E4C0120E0652D70E03E010894611C74
:1043D000711C442D50E00AC0F301EA0FFB1FE40FEB
:1043E000F51FA80DB91D8C9181832F5FA22FB0E01E
:1043F0006A177B078CF7C3010E9447212E960FB6E0
:10440000F894DEBF0FBECDBFCF91DF911F910F910A
:10441000FF90EF90DF90CF90BF90AF909F908F90E4
:104420007F906F905F904F9008951F9380E69AEE73
:104430000197F1F780E066E041E00E94A31B80E075
:1044400064E041E00E94A31B80E067E041E00E943D
:10445000A31B82E064E041E00E94A31B82E065E0D0
:1044600041E00E94A31B82E066E041E00E94A31BA2
:1044700082E067E041E00E94A31B80E067E040E04B
:104480000E94261C80E064E040E00E94261C80E040
:1044900066E041E00E94261C82E064E040E00E9469
:1044A000261C82E065E041E00E94261C82E066E076
:1044B00040E00E94261C82E067E040E00E94261C4B
:1044C00080E066E040E00E94261C88E20E94EB1F2C
:1044D00018E6812F8A95F1F78CE00E94EB1F1A9560
:1044E000F1F781E00E94EB1F84EF9BE00197F1F769
:1044F00086E00E94EB1F1F910895CF92DF92FF92FA
:104500000F931F93CF93DF930FEF10E0C0E0D0E045
:1045100030E4C32E3CE9D32EFC2E81E06C2F40E02A
:104520000E94261C81E063E00E94951C882311F400
:1045300013E017C081E064E00E94951C882311F409
:1045400014E00FC081E065E00E94951C882311F4FF
:1045500015E007C081E066E00E94951C8823C1F445
:1045600016E081E0612F0E94951C8823D1F3812FF2
:1045700090E00397FC01EE0FFF1FE80FF91FEC0F0F
:10458000FD1FEF5EFD4F0081C6010197F1F711E0BD
:1045900081E06F2D41E00E94261C113029F0219608
:1045A000C330D10509F0B8CF802FDF91CF911F9193
:1045B0000F91FF90DF90CF9008951F9381E060E00E
:1045C00041E00E94A31B81E060E040E00E94261CC5
:1045D00081E061E041E00E94A31B81E061E040E0F6
:1045E0000E94261C81E062E041E00E94A31B81E062
:1045F00062E040E00E94261C13E081E0612F40E071
:104600000E94A31B81E0612F41E00E94261C1F5FD6
:10461000173099F71F91089583E066E040E00E940B
:10462000261C80E991E028EC30E0F9013197F1F7A0
:104630000197D9F783E066E041E00E94261C0895C7
:104640000E942F170895CF93DF93EC0183E066E07B
:1046500040E00E94261C80E991E028EC30E0F9015E
:104660003197F1F70197D9F7CE010E942F1783E018
:1046700066E041E00E94261CDF91CF91089580E61C
:1046800090E00E942323089589E690E00E9423236E
:1046900080E790E00E94232386E790E00E94232396
:1046A00008950E943F170895DF93CF9300D00F9293
:1046B000CDB7DEB783E066E041E00E94A31B83E054
:1046C00066E040E00E94261C80E991E028EC30E0A2
:1046D000F9013197F1F70197D9F78EE790E00E9441
:1046E0002F170E943F1789830E943F178A831B82DE
:1046F000CE01019662E870E00E94D6269C0180E01F
:10470000232B09F081E00F900F900F90CF91DF9154
:1047100008950E94571708950E945217089590E037
:104720000E942B17089583E066E041E00E94A31BDE
:1047300083E066E041E00E94261C83E390E00E9453
:10474000E017089582E060E041E00E94A31B83E04F
:1047500067E041E00E94A31B81E067E041E00E9426
:10476000A31B82EB95E260E00E94E41A84E895E2E4
:104770000E94892308951F93CF93DF9380911002A5
:104780008F3609F441C081E067E040E00E94261CBA
:1047900084E6809310020E94091A0E94692080EA30
:1047A0009FE00197F1F785E890E00E94472184ECB3
:1047B00099E028EC30E0F9013197F1F70197D9F74A
:1047C0000E94692080EA9FE00197F1F710E0C8ECB1
:1047D000D0E080E065E00E945A208FE890E00E94DF
:1047E000472188EE93E0FE013197F1F70197D9F761
:1047F0000E94692088EE93E0FE013197F1F701975E
:10480000D9F71F5F133029F7DF91CF911F910895DA
:1048100084EC99E028EC30E0F9013197F1F7019749
:10482000D9F70E94692080EA9FE00197F1F786E9B5
:1048300090E00E94472181E060E00E945A200895A4
:10484000AF92BF92CF92DF92EF92FF920F931F939E
:10485000DF93CF93CDB7DEB728970FB6F894DEBFBE
:104860000FBECDBF6E010894C11CD11C28ECE22EF6
:10487000F12C9FE6A92E05E684E0B82E83E067E0E0
:104880000E94C51CD601EDE1F2E088E001900D9296
:104890008150E1F780911002863609F093C00E94A2
:1048A0007D22182F833209F074C080910D0281504F
:1048B00080930D0285E092E061E672E00E94D626C8
:1048C0000097E9F40E94091A0E94692088EE93E09B
:1048D000F7013197F1F70197D9F786EA90E00E9446
:1048E000472180E197E2F7013197F1F70197D9F776
:1048F0000E94692000931002B0920D0240C080E433
:104900009FE160E070E04BEB53E20E94941A0E943A
:10491000692088EE93E0F7013197F1F70197D9F715
:1049200082EB90E00E94472188E893E1F7013197FC
:10493000F1F70197D9F780910D028130F1F40E94CF
:10494000692088EE93E0F7013197F1F70197D9F7E5
:1049500082E060E041E00E94261C83EC90E00E942F
:10496000472180E29EE4F7013197F1F70197D9F7EB
:104970000E946920A092100202C00E940824109296
:104980006902E1E6F2E0119282E0E936F807D9F730
:1049900075CF8F3F09F472CF80E49FE160E070E053
:1049A0004BEB53E20E94941A80916902E82FF0E0E9
:1049B000EF59FD4F10838F5F809369028AE20E9456
:1049C0002F215CCF853609F059CFC6010E94361DD4
:1049D00088E893E1F7013197F1F70197D9F74ECFC6
:1049E0001F93982F9F7082958F709C3091F09D300F
:1049F00028F49A3061F09B30A1F407C09E3069F032
:104A00009E3048F09F3069F40AC012E40CC011E4F3
:104A10000AC013E408C014E406C015E404C016E498
:104A200002C0192F105D8C3091F08D3028F48A303F
:104A300061F08B30A1F407C08E3069F08E3048F001
:104A40008F3069F40AC082E40BC081E409C083E4BA
:104A500007C084E405C085E403C086E401C0805D2E
:104A60000E948F23812F0E948F231F91089583E539
:104A70000E948F238BE20E948F238DE20E948F235E
:104A8000809178020E94F0248CE20E948F23809112
:104A90006A020E94F0248CE20E948F2380917A02A5
:104AA0000E94F0248CE20E948F2380917C020E945D
:104AB000F0248CE20E948F2380E00E94F0248091F9
:104AC0006C020E94F0248CE20E948F2380917D0270
:104AD0000E94F0248CE20E948F2380917B020E942E
:104AE000F0248CE20E948F23809177020E94F024B0
:104AF0008CE20E948F23809179020E94F02483ED42
:104B000090E00E9420230895CF93DF93EC018B3334
:104B1000910569F410926F021092700281E0809307
:104B20006E020E94372581E067E00E94C51C8091DB
:104B30006F02813069F4C032D10589F08091700232
:104B4000E82FF0E0E258FD4FC0838F5F8093700242
:104B5000A39729F481E080936F0210926E02DF9197
:104B6000CF9108951F93CF93DF9385B78F7585BF3E
:104B7000809110028F36A9F181E067E041E00E9448
:104B8000261C86E68093100280E060E00E945A2096
:104B900086ED90E00E94472184EF91E028EC30E020
:104BA000F9013197F1F70197D9F710E0C8ECD0E09F
:104BB0008EE20E942F2188EE93E0FE013197F1F7FB
:104BC0000197D9F71F5F133099F70E9408240E94BC
:104BD000021A80E49FE160E070E04BEB53E20E9438
:104BE000941ADF91CF911F91089580916A0290915C
:104BF0006B020E94E21D80936A0210926B02809108
:104C00006C0290916D020E945A1E90936D028093E7
:104C10006C0280E060E00E945A2040916A0250914C
:104C20006B029A0140E050E060E070E080E090E0CC
:104C30000E94322181E060E00E945A2040916C0283
:104C400050916D029A0140E050E060E070E080E039
:104C500090E00E94322181E066E00E945A2008958F
:104C60000E94CD1A0E94A2230E942024FDCF629FA1
:104C7000D001739FF001829FE00DF11D649FE00D54
:104C8000F11D929FF00D839FF00D749FF00D659FB5
:104C9000F00D9927729FB00DE11DF91F639FB00DB4
:104CA000E11DF91FBD01CF011124089597FB092EC5
:104CB00007260AD077FD04D02ED006D000201AF4A3
:104CC000709561957F4F0895F6F7909581959F4F68
:104CD0000895A1E21A2EAA1BBB1BFD010DC0AA1F3D
:104CE000BB1FEE1FFF1FA217B307E407F50720F055
:104CF000A21BB30BE40BF50B661F771F881F991FD0
:104D00001A9469F760957095809590959B01AC0118
:104D1000BD01CF010895AA1BBB1B51E107C0AA1F0B
:104D2000BB1FA617B70710F0A61BB70B881F991F4C
:104D30005A95A9F780959095BC01CD0108952F92C1
:104D40003F924F925F926F927F928F929F92AF921B
:104D5000BF92CF92DF92EF92FF920F931F93CF9368
:104D6000DF93CDB7DEB7CA1BDB0B0FB6F894DEBFFF
:104D70000FBECDBF09942A88398848885F846E8425
:104D80007D848C849B84AA84B984C884DF80EE806F
:104D9000FD800C811B81AA81B981CE0FD11D0FB678
:104DA000F894DEBF0FBECDBFED010895FB01DC011D
:104DB0008D91019080190110D9F3990B08953BD082
:104DC00080F09F3740F491110EF44DC060E070E028
:104DD00080E89FE3089526F01B16611D711D811D5B
:104DE00001C01BC0882371F4772321F09850872BD2
:104DF000762F07C0662311F499270DC09051862B9A
:104E000070E060E02AF09A95660F771F881FDAF746
:104E1000880F9695879597F908959F3F31F09150A7
:104E200020F4879577956795B795880F911D96958E
:104E3000879597F9089525D0A0F0BEE7B91788F4B3
:104E4000BB279F3860F41616B11D672F782F88276F
:104E5000985FF7CF869577956795B11D93959639AD
:104E6000C8F30895E894BB2766277727CB0197F905
:104E7000089557FD9058440F551F59F05F3F71F04A
:104E80004795880F97FB991F61F09F3F79F08795B1
:104E90000895121613061406551FF2CF4695F1DF3A
:104EA00008C0161617061806991FF1CF86957105CA
:0A4EB000610508940895F894FFCFFF
:104EBA0041542B534C4545500041542B4655330021
:104ECA0041542B50360041542B4330303100415469
:104EDA002B004F4B004220592045202E2E2E002019
:104EEA00212021202100456E746572205061737360
:104EFA00776F72643A0057454C434F4D4520212144
:104F0A00210057726F6E672050617373776F7264F6
:104F1A0020210053797374656D204C6F636B446F65
:104F2A00776E002B2D0057656C636F6D652000004E
:104F3A000000000000000000010202030303030452
:104F4A00040404040404040505050505050505050E
:104F5A0005050505050505060606060606060606EE
:104F6A0006060606060606060606060606060606D7
:104F7A0006060606060606070707070707070707BE
:104F8A0007070707070707070707070707070707A7
:104F9A000707070707070707070707070707070797
:104FAA000707070707070707070707070707070787
:104FBA00070707070707070808080808080808086E
:104FCA000808080808080808080808080808080857
:104FDA000808080808080808080808080808080847
:104FEA000808080808080808080808080808080837
:104FFA000808080808080808080808080808080827
:10500A000808080808080808080808080808080816
:10501A000808080808080808080808080808080806
:10502A0008080808080808080808080808080808F6
:10503A0008080808080808040E0E0E1F00040000DD
:10504A000A15110A040E0E04041F040A0A040E1596
:10505A000404040400313233340000000004000167
:10506A00643132333435363738392A30230E026AFE
:06507A00020200F5250012
:00000001FF
