:100000000C942A000C94A3080C94CA080C94F108D0
:100010000C94080B0C94310B0C942D0A0C94560A7A
:100020000C947F0A0C94A80A0C9482090C94AB09D6
:100030000C9447000C94920B0C94BD0B0C94E60BA3
:100040000C94ED060C9447000C9447000C94470068
:100050000C94470011241FBECFE5D8E0DEBFCDBF12
:1000600010E0A0E6B0E0E4E9FCE102C005900D92EA
:10007000AC3DB107D9F721E0ACEDB0E001C01D9275
:10008000AE32B207E1F70E944F040C94480E0C9474
:100090000000CF93982F9F7082958F709C3071F0E5
:1000A00030F49A30A1F09B3079F4C2E411C09E3054
:1000B00049F030F09F3041F4C6E40AC0C3E408C000
:1000C000C4E406C0C5E404C0C0E3C90F01C0C1E474
:1000D0008C3071F030F48A3099F08B3079F482E40E
:1000E00010C08E3049F030F08F3041F486E409C002
:1000F00083E407C084E405C085E403C0805D01C0DB
:1001000081E40E9472048C2FCF910C9472040F939F
:100110001F93CF93DF930FED10E0F8018081918161
:100120000E94990690E0F8019183808382819381F7
:100130000E942606F8019383828383E50E9472045D
:100140008BE20E9472048DE20E947204CCE1D1E045
:1001500089810E9449008CE20E947204F80180812A
:100160000E9449008CE20E9472048B810E94490027
:100170008CE20E9472048D810E9449008CE20E94F0
:10018000720480E00E944900F80182810E944900C7
:100190008CE20E9472048E810E9449008CE20E94CF
:1001A00072048C810E9449008CE20E947204888152
:1001B0000E9449008CE20E9472048A810E944900D8
:1001C00086E790E0DF91CF911F910F910C94770417
:1001D000CF9380916A008F3609F446C040E067E013
:1001E00081E00E94A70784E680936A000E94440988
:1001F0000E9412068FE99FE00197F1F700C000000E
:1002000089E790E00E94FF059FE72AE186E0915090
:1002100020408040E1F700C000000E9412068FE9F4
:100220009FE00197F1F700C00000C3E065E080E0C7
:100230000E941B0683E890E00E94FF059FEF20E7E5
:1002400082E0915020408040E1F700C000000E9411
:1002500012069FEF20E782E0915020408040E1F7B6
:1002600000C00000C15011F7CF9108952FE78AE137
:1002700096E0215080409040E1F700C000000E94CD
:1002800012068FE99FE00197F1F700C000008AE8AD
:1002900090E00E94FF0560E081E00C941B0685B7AA
:1002A0008F7585BF80916A008F3609F448C041E0A0
:1002B00067E081E00E94A70786E680936A0060E01D
:1002C00080E00E941B068AE990E00E94FF052FE76C
:1002D00088E391E0215080409040E1F700C00000A9
:1002E0008EE20E94FD052FEF80E792E021508040D2
:1002F0009040E1F700C000008EE20E94FD052FEF64
:1003000080E792E0215080409040E1F700C000007B
:100310008EE20E94FD052FEF80E792E021508040A1
:100320009040E1F700C000000E9436010E943D09A4
:1003300048EE50E060E080E49FE10C944A090895A3
:100340001F93CF93DF9341E060E082E00E94560765
:1003500040E060E082E00E94A70741E062E080E0C8
:100360000E94560740E062E080E00E94A70741E05B
:1003700067E081E00E94560740E067E081E00E946C
:10038000A70741E067E083E00E94560740E067E08E
:1003900083E00E94A70741E061E082E00E945607E7
:1003A00040E061E082E00E94A70741E062E082E075
:1003B0000E94560740E062E082E00E94A70741E009
:1003C00063E082E00E94560740E063E082E00E9422
:1003D000A70782E690E00E94BD0610E0C12FD0E0A2
:1003E000CE010E947708813741F0CE010E94770844
:1003F000C259DF4F88831F5FF1CF0E9475060E94AC
:10040000800680E00E9482060E9456040E945D04DD
:1004100060E08FE491E00E948E0881E294E0DF9139
:10042000CF911F910C9475048091E1009091E200AE
:10043000813D27E0920718F440E061EF20C0893B3E
:100440002BE0920740F440E061EF82E00E94F80761
:1004500041E061E00FC08938934178F440E061EFFA
:1004600082E00E94F80741E062E082E00E94A70774
:1004700041E063E082E00C94A70741E06EE082E097
:100480000C94F807DFE615E604E080916A008636F2
:1004900009F0E1C00E949704C82F833209F0B3C06D
:1004A00080916D00815080936D0064EE70E08EE667
:1004B00090E00E943F0E892B31F540E067E081E03B
:1004C0000E94A7070E9444090E9412062FEF80E7AE
:1004D00092E0215080409040E1F700C0000083EAA4
:1004E00090E00E94FF052FEF89E698E121508040BF
:1004F0009040E1F700C000000E94120610936A00CD
:1005000000936D0076C048EE50E060E080E49FE12B
:100510000E944A0941E060E082E00E94A7072FE7BD
:1005200088E391E0215080409040E1F700C0000056
:1005300040E060E082E00E94A7072FE788E391E0B7
:10054000215080409040E1F700C0000041E060E0B1
:1005500082E00E94A7072FE788E391E021508040C6
:100560009040E1F700C0000040E060E082E00E94BF
:10057000A7070E9412062FEF80E792E021508040EB
:100580009040E1F700C000008FEA90E00E94FF0574
:100590002FEF84E39CE0215080409040E1F700C0C1
:1005A000000080916D00813011F50E9412062FEF3E
:1005B00080E792E0215080409040E1F700C00000C9
:1005C00041E060E082E00E94A70780EC90E00E949A
:1005D000FF052FEF83ED90E3215080409040E1F73D
:1005E00000C000000E941206D0936A0002C00E9460
:1005F00036011092E300E4EEF0E0119220E0EC3ED0
:10060000F207D9F742CF8F3F09F43FCF48EE50E0D1
:1006100060E080E49FE10E944A0941E060E082E0FE
:100620000E94A7078FE493EC0197F1F700C0000048
:1006300040E060E082E00E94A7078091E300E82F9D
:10064000F0E0EC51FF4FC0838F5F8093E3008AE2BC
:100650000E94FD051ACF853609F017CF82E690E09B
:100660000E94BD069FEF20E782E09150204080402D
:10067000E1F700C0000080916000823311F40E9415
:1006800014029FEF29E688E1915020408040E1F775
:1006900000C00000FACE8091DF009091E0008A3027
:1006A000910538F480E00E945F0483E780931F0186
:1006B0001FC08F30910510F484E118C0843191057A
:1006C00010F48EE113C08931910510F488E20EC058
:1006D0008E31910510F48CE309C08332910510F43A
:1006E00080E504C08436910518F484E60E945F0416
:1006F0008091DF009091E0000B9718F082E78093E3
:100700001F0108951F93CF93DF93809124018636B4
:1007100009F449C018F48336A1F065C0873619F092
:100720008C36F9F060C080912301823711F481E0AA
:1007300001C080E00E9482068091230180931C0109
:1007400052C080912301823711F441E001C040E0A2
:1007500067E083E00E94A7078091230180931E0138
:1007600042C080912501853639F482E38093600090
:100770000E94140282E710C083E38093600080919E
:100780002301823719F441E06EE002C040E061EFDE
:1007900082E00E94F80783E7809320018091230183
:1007A0008093220120C080912501853649F482E39F
:1007B000809361000E944B0382E78093210113C064
:1007C00083E38093610080912301823719F40E94B2
:1007D0005B0402C00E945D0483E780932101809145
:1007E000230180931F0180912301803731F521E09F
:1007F000822F90E0FC01ED5DFE4F3081313731F00A
:10080000FC01E359FF4F30832F5FF2CF10E0EC0182
:100810002197812F90E08C179D0744F4FC01E25949
:10082000FF4F60810E9470081F5FF3CF61E7CE0128
:10083000DF91CF911F910C947008DF91CF911F91A0
:100840000895CF93DF93EC01CB9779F41092DD00FC
:100850001092DC0081E08093DE000E9482030E94FF
:10086000870067E081E00E9440088091DD008130D0
:1008700061F4C032D10581F0E091DC008E0F8093ED
:10088000DC00F0E0ED5DFE4FC083A39729F481E02A
:100890008093DD001092DE00DF91CF9108950E94D9
:1008A0001C090E94A0010E944202FDCF0E94EC0997
:1008B00089E10C94190A0C94120A0C94120A8536D8
:1008C00014F40C94190A089541E066E083E00E9454
:1008D000560741E066E083E00E94A70783E390E0CB
:1008E0000C945A0B90E00C94720B0C948D0B0C949E
:1008F000760BCF93C0E041E06C2F81E00E94560759
:1009000040E06C2F81E00E94A707CF5FC33099F7CA
:1009100040E06C2F81E00E94560741E06C2F81E09F
:100920000E94A707CF5FC73099F7CF910895FF9234
:100930000F931F93CF93DF93C0E0D0E00FEFFC2E17
:1009400040E06C2F81E00E94A70713E0612F81E057
:100950000E94280881111CC0612F81E00E94280894
:100960008823D1F3612F70E063507109FB01EE0F12
:10097000FF1FE60FF71FE053FF4FEC0FFD1F008135
:100980008FE39CE90197F1F700C0000011E004C07B
:100990001F5F1730D9F610E041E06F2D81E00E9413
:1009A000A707113021F02196C330D10541F6802FE1
:1009B000DF91CF911F910F91FF900895CF93C82F92
:1009C00040E067E080E00E94A70740E064E080E04C
:1009D0000E94A70741E066E080E00E94A707C4FBF1
:1009E000442740F964E082E00E94A707C5FB442742
:1009F00040F965E082E00E94A707C6FB442740F962
:100A000066E082E00E94A7074C2F441F4427441F42
:100A100067E082E00E94A70740E066E080E00E9475
:100A2000A70741E066E080E00E94A7074C2F4170D5
:100A300064E082E00E94A707C1FB442740F965E01B
:100A400082E00E94A707C2FB442740F966E082E0EB
:100A50000E94A707C3FB442740F967E082E00E9499
:100A6000A70740E066E080E0CF910C94A707CF9302
:100A7000C82F41E066E080E00E94A70741E067E000
:100A800080E00E94A70740E064E080E00E94A707A2
:100A9000C4FB442740F964E082E00E94A707C5FB3D
:100AA000442740F965E082E00E94A707C6FB44277F
:100AB00040F966E082E00E94A7074C2F441F4427BC
:100AC000441F67E082E00E94A70740E066E080E004
:100AD0000E94A70741E066E080E00E94A7074C2F34
:100AE000417064E082E00E94A707C1FB442740F9FF
:100AF00065E082E00E94A707C2FB442740F966E058
:100B000082E00E94A707C3FB442740F967E082E028
:100B10000E94A70740E066E080E00E94A70783E00C
:100B20008A95F1F70000CF9108958BE49DE101973C
:100B3000F1F700C0000041E066E080E00E94560747
:100B400041E064E080E00E94560741E067E080E019
:100B50000E94560741E064E082E00E94560741E0AF
:100B600065E082E00E94560741E066E082E00E9474
:100B7000560741E067E082E00E94560740E067E0E8
:100B800080E00E94A70740E064E080E00E94A707A1
:100B900041E066E080E00E94A70740E064E082E078
:100BA0000E94A70741E065E082E00E94A70740E0BD
:100BB00066E082E00E94A70740E067E082E00E94D2
:100BC000A70740E066E080E00E94A70788E20E9455
:100BD000DE049DE09A95F1F78CE00E94DE048DE042
:100BE0008A95F1F781E00E94DE048EE791E001979B
:100BF000F1F7000086E00C94DE040C9437050F93A7
:100C00001F93CF938C01C0E0F801EC0FF11D8081A0
:100C1000882321F00E943705CF5FF6CFCF911F9137
:100C20000F91089581E00E94DE048EE791E0019724
:100C3000F1F700000895882319F0813019F0089524
:100C400080E801C080EC860F0C94DE04CF92DF9226
:100C5000EF92FF920F931F939C01A8E8B3E10E94CB
:100C6000250E2FEF33E040E050E00E94030E6901B3
:100C70007A01A8EEB3E00E94340E08E813E120E008
:100C800030E0A90198012C193D094E095F090E9425
:100C9000030EC9011F910F91FF90EF90DF90CF904D
:100CA00008958091ED008F5F8093ED009091EE00AC
:100CB00089130BC040E063E080E00E94A707909199
:100CC000EC0080EE891B0E94010B8091ED008E34B8
:100CD00059F441E063E080E00E94A7078091EC00B6
:100CE0000E94010B1092ED0008950E94EE0A41E06F
:100CF00063E080E00E94560781E596E00C94030BC8
:100D00000C94FA0A882319F0813041F0089582E1A9
:100D10008093EC000E94010B82E006C08CE380937C
:100D2000EC000E94010B89E08093EE0008950C9482
:100D3000A6069C01A4EFB1E00E94250E2FEF33E040
:100D400040E050E00E94030E822F089540E060E0F2
:100D500080E00E94560740E061E080E00E94560774
:100D600086B1887F86B986B1876086B9359887B1A4
:100D70008F71806487B9379A0895FC0189EC80935C
:100D8000EF00808191819093F6008093F50082813D
:100D900093819093F4008093F300848195819093E4
:100DA000F2008093F100868197819093F800809300
:100DB000F7001092F00087B1807E87B99091F00023
:100DC000E091F500F091F600E90FF11D9081892B7B
:100DD00087B986B1886486B908951F920F920FB6BD
:100DE0000F9211242F933F934F935F936F937F93B1
:100DF0008F939F93AF93BF93EF93FF938091EF00F7
:100E0000883C69F4E091F900F091FA003097E9F13B
:100E100084B195B1909301008093000011C0893C8A
:100E2000A1F52091F000822F90E04091F1005091C7
:100E3000F2004817590739F4E091F700F091F800F3
:100E40000995339822C044B155B1880F991FE0919C
:100E5000F300F091F400E80FF91F518340832F5FF6
:100E60002093F00067E083E00E94400887B1807E15
:100E700087B99091F000E091F500F091F600E90F4C
:100E8000F11D9081892B87B9369AFF91EF91BF911F
:100E9000AF919F918F917F916F915F914F913F9112
:100EA0002F910F900FBE0F901F901895242F813017
:100EB000C1F028F0823039F18330B9F1089541E072
:100EC00050E0062E01C0440F0A94EAF740958AB319
:100ED0008423422F01C0440F6A95EAF7482B4ABB8E
:100EE000089581E090E0062E01C0880F0A94EAF789
:100EF000809547B38423422F01C0440F6A95EAF7D7
:100F0000482B47BB089581E090E0062E01C0880F72
:100F10000A94EAF7809544B38423422F01C0440F1A
:100F20006A95EAF7482B44BB089581E090E0062ECD
:100F300001C0880F0A94EAF7809541B38423422FB9
:100F400001C0440F6A95EAF7482B41BB0895242F4E
:100F50008130C1F028F0823039F18330B9F1089541
:100F600041E050E0062E01C0440F0A94EAF7409594
:100F70008BB38423422F01C0440F6A95EAF7482BB4
:100F80004BBB089581E090E0062E01C0880F0A94C3
:100F9000EAF7809548B38423422F01C0440F6A9535
:100FA000EAF7482B48BB089581E090E0062E01C087
:100FB000880F0A94EAF7809545B38423422F01C035
:100FC000440F6A95EAF7482B45BB089581E090E00D
:100FD000062E01C0880F0A94EAF7809542B3842355
:100FE000422F01C0440F6A95EAF7482B42BB08958F
:100FF0004130A1F4813049F028F0823049F083304B
:1010000051F008958BB3682B15C088B3682B16C0B8
:1010100085B3682B17C082B3682B18C0411117C065
:10102000813051F028F0823059F0833069F0089512
:101030008BB368236BBB089588B3682368BB08959E
:1010400085B3682365BB089582B3682362BB0895A6
:10105000813049F030F0823041F0833079F480B350
:1010600005C089B303C086B301C083B390E002C05A
:10107000959587956A95E2F7982F9170892F089535
:10108000813081F028F08230B9F08330F9F0089592
:1010900081E090E001C0880F6A95EAF79BB3892749
:1010A0008BBB089581E090E001C0880F6A95EAF754
:1010B00098B3892788BB089581E090E001C0880F2C
:1010C0006A95EAF795B3892785BB089581E090E09A
:1010D00001C0880F6A95EAF792B3892782BB089509
:1010E000E199FECF8EBB6DBBE29AE19A0895E1993A
:1010F000FECF8EBBE09A8DB3089540E062E083E0BE
:101100000E94560741E062E083E00E94A7078BB788
:1011100080648BBF85B7836085BF0895613049F0D7
:1011200018F0623059F0089590932B0180932A01B2
:1011300008959093290180932801089590932D019B
:1011400080932C0108951F920F920FB60F921124D5
:101150002F933F934F935F936F937F938F939F93BF
:10116000AF93BF93EF93FF93E0912A01F0912B018E
:101170000995FF91EF91BF91AF919F918F917F91D1
:101180006F915F914F913F912F910F900FBE0F90F4
:101190001F9018951F920F920FB60F9211242F9344
:1011A0003F934F935F936F937F938F939F93AF93EF
:1011B000BF93EF93FF93E0912801F09129010995E6
:1011C000FF91EF91BF91AF919F918F917F916F911F
:1011D0005F914F913F912F910F900FBE0F901F90F5
:1011E00018951F920F920FB60F9211242F933F93D1
:1011F0004F935F936F937F938F939F93AF93BF931F
:10120000EF93FF93E0912C01F0912D010995FF914F
:10121000EF91BF91AF919F918F917F916F915F916E
:101220004F913F912F910F900FBE0F901F901895E7
:101230008FB780688FBF08950E9497060E9464044C
:101240000E9495050E9479040E9418090E942C09A9
:101250000E947D080C94EC0983B7877B83BF83B71A
:1012600083BF89B7816089BF83B78F7C83BF83B712
:1012700083BF83B78F7783BF089583B7887F83BF8A
:1012800083B7856083BF089583B7887F83BF83B7A3
:1012900083BF0895CF92DF92EF92FF92CF93DF93B7
:1012A000EA011092FC001092FB00BC0180E090E08B
:1012B0000E94340D2FE632E143E052E40E94930C89
:1012C0006B017C010E947C0C0E94050D7093FF0055
:1012D0006093FE00D0930301C093020180E090E090
:1012E0000E94340DA70196010E940F0C0E94050D6B
:1012F00062BF6093FD00DF91CF91FF90EF90DF9090
:10130000CF9008951F920F920FB60F9211242F9332
:101310003F934F935F936F937F938F939F93AF937D
:10132000BF93EF93FF93E0910001F091010130979B
:1013300009F00995FF91EF91BF91AF919F918F9126
:101340007F916F915F914F913F912F910F900FBEC1
:101350000F901F9018951F920F920FB60F921124A5
:101360002F933F934F935F936F937F938F939F93AD
:10137000AF93BF93EF93FF93E0910201F0910301CC
:101380003097C9F08091FB009091FC002091FE0005
:101390003091FF008217930749F41092FC001092DD
:1013A000FB0009958091FD0082BF05C001969093D6
:1013B000FC008093FB00FF91EF91BF91AF919F9153
:1013C0008F917F916F915F914F913F912F910F90EE
:1013D0000FBE0F901F9018958FB58E7F8FBD8FB564
:1013E00082608FBD8EB588618EBD8FB580688FBDE0
:1013F0008FB58F7B8FBD41E065E083E00E9456078B
:101400008FB580628FBD8FB58F7E8FBD41E064E068
:1014100083E00E9456078FB58B7F8FBD8FB5877F86
:101420008FBD08958EB5887F8EBD8EB585608EBDCB
:101430000895682F70E071956195710980E090E0E2
:101440000E94340D20E030E048EC52E40E94930CFE
:101450000E94050D79BD68BD08951F920F920FB6C9
:101460000F9211242F933F934F935F936F937F932A
:101470008F939F93AF93BF93EF93FF93E0910A01F4
:10148000F0910B01309709F00995FF91EF91BF9111
:10149000AF919F918F917F916F915F914F913F910C
:1014A0002F910F900FBE0F901F9018951F920F92C3
:1014B0000FB60F9211242F933F934F935F936F9327
:1014C0007F938F939F93AF93BF93EF93FF93E0919D
:1014D0000E01F0910F01309709F00995FF91EF91FE
:1014E000BF91AF919F918F917F916F915F914F913C
:1014F0003F912F910F900FBE0F901F9018951F9244
:101500000F920FB60F9211242F933F934F935F9337
:101510006F937F938F939F93AF93BF93EF93FF93BB
:10152000E0910C01F0910D01309709F00995FF91C0
:10153000EF91BF91AF919F918F917F916F915F914B
:101540004F913F912F910F900FBE0F901F901895C4
:101550001F920F920FB60F9211242F933F934F9328
:101560005F936F937F938F939F93AF93BF93EF930B
:10157000FF93E0911001F09111013097F1F080910B
:101580000401909105012091080130910901821711
:10159000930771F481E090E090930501809304013A
:1015A000099580910601909107019DBD8CBD05C0F4
:1015B00001969093050180930401FF91EF91BF91F3
:1015C000AF919F918F917F916F915F914F913F91DB
:1015D0002F910F900FBE0F901F90189585B5877BA8
:1015E00085BD85B585BD89B7806489BF85B58F7791
:1015F00085BD089585B5887F85BD85B5826085BD2B
:10160000089584BD08959093150180931401089561
:101610001F920F920FB60F9211242F933F934F9367
:101620005F936F937F938F939F93AF93BF93EF934A
:10163000FF93E0911201F0911301309709F00995A1
:10164000FF91EF91BF91AF919F918F917F916F919A
:101650005F914F913F912F910F900FBE0F901F9070
:1016600018951F920F920FB60F9211242F933F934C
:101670004F935F936F937F938F939F93AF93BF939A
:10168000EF93FF93E0911401F0911501309709F069
:101690000995FF91EF91BF91AF919F918F917F91AC
:1016A0006F915F914F913F912F910F900FBE0F90CF
:1016B0001F9018951AB82AB128692AB920E820BDC8
:1016C00020B5206820BD20B5266820BD90BD89B911
:1016D00041E061E083E00E94560740E060E083E083
:1016E0000C9456075D9BFECF8CB908950F931F9302
:1016F000CF938C01C0E0F801EC0FF11D80818823AD
:1017000029F090E00E94720BCF5FF5CF80E090E06F
:10171000CF911F910F910C94720B90931B018093AA
:101720001A0108951F920F920FB60F9211242F9352
:101730003F934F935F936F937F938F939F93AF9359
:10174000BF93EF93FF93E0911A01F0911B01309743
:1017500019F08CB190E00995FF91EF91BF91AF9195
:101760009F918F917F916F915F914F913F912F91B9
:101770000F900FBE0F901F9018951F920F920FB6EB
:101780000F9211242F933F934F935F936F937F9307
:101790008F939F93AF93BF93EF93FF93E0911601C5
:1017A000F0911701309709F00995FF91EF91BF91E2
:1017B000AF919F918F917F916F915F914F913F91E9
:1017C0002F910F900FBE0F901F9018951F920F92A0
:1017D0000FB60F9211242F933F934F935F936F9304
:1017E0007F938F939F93AF93BF93EF93FF93E0917A
:1017F0001801F0911901309709F00995FF91EF91C7
:10180000BF91AF919F918F917F916F915F914F9118
:101810003F912F910F900FBE0F901F901895505829
:10182000BB27AA270E94270C0C94B10D0E94A30D80
:1018300038F00E94AA0D20F039F49F3F19F426F4E5
:101840000C94A00D0EF4E095E7FB0C94710DE92FBC
:101850000E94C20D58F3BA176207730784079507F1
:1018600020F079F4A6F50C94FC0D0EF4E0950B2E07
:10187000BA2FA02D0B01B90190010C01CA01A001E2
:101880001124FF27591B99F0593F50F4503E68F13D
:101890001A16F040A22F232F342F4427585FF3CF7E
:1018A000469537952795A795F0405395C9F77EF44F
:1018B0001F16BA0B620B730B840BBAF09150A1F098
:1018C000FF0FBB1F661F771F881FC2F70EC0BA0F1E
:1018D000621F731F841F48F4879577956795B795A6
:1018E000F7959E3F08F0B0CF9395880F08F09927A1
:1018F000EE0F9795879508950E94E40D90F09F371D
:1019000048F4911116F40C94FD0D60E070E080E84D
:101910009FE3089526F01B16611D711D811D0C9417
:10192000770D0C94920D0E94A70C0C94B10D0E949F
:10193000AA0D58F00E94A30D40F029F45F3F29F052
:101940000C94710D51110C94FD0D0C94A00D0E947E
:10195000C20D68F39923B1F3552391F3951B550BF1
:10196000BB27AA2762177307840738F09F5F5F4F72
:10197000220F331F441FAA1FA9F335D00E2E3AF0B1
:10198000E0E832D091505040E695001CCAF72BD0C9
:10199000FE2F29D0660F771F881FBB1F261737071A
:1019A0004807AB07B0E809F0BB0B802DBF01FF274C
:1019B00093585F4F3AF09E3F510578F00C94710DAB
:1019C0000C94FD0D5F3FE4F3983ED4F38695779534
:1019D0006795B795F7959F5FC9F7880F911D969505
:1019E000879597F90895E1E0660F771F881FBB1F61
:1019F000621773078407BA0720F0621B730B840B0E
:101A0000BA0BEE1F88F7E09508950E94CA0D88F082
:101A10009F5798F0B92F9927B751B0F0E1F0660FB2
:101A2000771F881F991F1AF0BA95C9F714C0B130F3
:101A300091F00E94FC0DB1E008950C94FC0D672F0D
:101A4000782F8827B85F39F0B93FCCF38695779522
:101A50006795B395D9F73EF490958095709561950B
:101A60007F4F8F4F9F4F0895E89409C097FB3EF436
:101A700090958095709561957F4F8F4F9F4F9923DB
:101A8000A9F0F92F96E9BB279395F6958795779559
:101A90006795B795F111F8CFFAF4BB0F11F460FF19
:101AA0001BC06F5F7F4F8F4F9F4F16C0882311F071
:101AB00096E911C0772321F09EE8872F762F05C085
:101AC000662371F096E8862F70E060E02AF09A9520
:101AD000660F771F881FDAF7880F9695879597F915
:101AE000089597F99F6780E870E060E00895882383
:101AF00071F4772321F09850872B762F07C0662347
:101B000011F499270DC09051862B70E060E02AF007
:101B10009A95660F771F881FDAF7880F9695879535
:101B200097F908959F3F31F0915020F4879577956C
:101B30006795B795880F911D9695879597F90895A4
:101B40009FEF80EC089500240A94161617061806D5
:101B50000906089500240A941216130614060506B1
:101B60000895092E0394000C11F4882352F0BB0F42
:101B700040F4BF2B11F460FF04C06F5F7F4F8F4FA5
:101B80009F4F089557FD9058440F551F59F05F3FE0
:101B900071F04795880F97FB991F61F09F3F79F08F
:101BA00087950895121613061406551FF2CF469511
:101BB000F1DF08C0161617061806991FF1CF869593
:101BC00071056105089408950E94CA0DA0F0BEE752
:101BD000B91788F4BB279F3860F41616B11D672F1C
:101BE000782F8827985FF7CF869577956795B11DF1
:101BF00093959639C8F30895E894BB27662777270D
:101C0000CB0197F90895A1E21A2EAA1BBB1BFD0177
:101C10000DC0AA1FBB1FEE1FFF1FA217B307E407CB
:101C2000F50720F0A21BB30BE40BF50B661F771F23
:101C3000881F991F1A9469F7609570958095909503
:101C40009B01AC01BD01CF010895A29FB001B39FDC
:101C5000C001A39F700D811D1124911DB29F700DB5
:101C6000811D1124911D08950E94250EA59F900DA0
:101C7000B49F900DA49F800D911D11240895FB0128
:101C8000DC018D91019080190110D9F3990B089511
:041C9000F894FFCFF6
:101C940033336B00DF00020087006400010431323B
:101CA4003334000000002B2D004220592045202E03
:101CB4002E2E0020212021202100456E74657220E3
:101CC40050617373776F72643A0057656C636F6D1C
:101CD40065200057454C434F4D4520212121005795
:101CE400726F6E672050617373776F726420210086
:101CF40053797374656D204C6F636B446F776E001A
:0C1D04003132333435363738392A302379
:00000001FF
